:020000040000FA
:0600000048EF12F01200AF
:0A0006000100F4240000A200000035
:0400100002000000EA
:0C001400000000000000000000000000E0
:1000200000000000000000000000000000000000D0
:1000300000D01200050EE66E28EC12F0E552120018
:100040000F0EE66E28EC12F0E5521200836A956AF4
:10005000280EE66EB0EC0EF0E552E4EC11F000096B
:10006000FCE1E66A96EC10F0E552060EE66E31EC25
:1000700011F0E552E4EC11F00009FCE10F0EE66E20
:1000800031EC11F0E552E4EC11F00009FCE1120052
:10009000070EC16E96949490929C9482929492963C
:1000A00092921200929A9692969094961200D9CFBC
:1000B000E6FFE1CFD9FF020EE126DE6ADD6ADE6AE5
:1000C000DD6ADECF14F0DDCF15F0D890155004E6D0
:1000D0000F0E145C000E15580AE2C80EE66E28ECEE
:1000E00012F0E552DF2A010EECE3DB2AEAD7E4EC5A
:1000F00011F00009FCE1E66A96EC10F0E552E4EC40
:1001000011F00009FCE1010EE66E28EC12F0E55258
:10011000E4EC11F00009FCE14E0EE66E1D0EE66EF9
:10012000E4EC10F0E552E552E4EC11F00009FCE1DA
:10013000400EE66E96EC10F0E552E4EC11F000098A
:10014000FCE1010EE66E28EC12F0E552E4EC11F051
:100150000009FCE14E0EE66E1D0EE66EE4EC10F0BA
:10016000E552E552E4EC11F00009FCE1100EE66EF8
:1001700096EC10F0E552E4EC11F00009FCE1010E00
:10018000E66E28EC12F0E552E4EC11F00009FCE117
:100190004E0EE66E1D0EE66EE4EC10F0E552E552F2
:1001A000E4EC11F00009FCE1500EE66E96EC10F064
:1001B000E552E4EC11F00009FCE1010EE66E28ECDA
:1001C00012F0E552E4EC11F00009FCE14E0EE66E8F
:1001D0001D0EE66EE4EC10F0E552E552020EE15C15
:1001E00002E2E16AE552E16EE552E7CFD9FF120083
:1001F0008B8612008B961200D9CFE6FFE1CFD9FF94
:10020000030EE126DF6A010EDB6A020EDB6A0001E3
:10021000806B816BEDDF898C8D94898A8D908D92B6
:10022000DF6ADFCF14F0050EE76E1418E8AE02D0D7
:10023000E73402D0E750145C07E2030EE66E64EC8C
:1002400012F0E552DF2AEDD7899C8D84DF6ADFCF7B
:1002500014F0080EE76E1418E8AE02D0E73402D0AE
:10026000E750145C2AE28250020B01E0010EE66EB8
:10027000D950010FE96EDACFEAFFE552E750EE6E92
:10028000ED6A010EDBCF16F0020EDBCF17F0070E82
:10029000D880DF5416C014F017C015F005E0D890D0
:1002A00014361536E804FBE1145000018013155094
:1002B00081138B808B90DF2ACAD78D808D8280C07E
:1002C000F3FF81C0F4FF030EE15C02E2E16AE55254
:1002D000E16EE552E7CFD9FF1200D9CFE6FFE1CFBB
:1002E000D9FF020EE126DF6AFD0EDB50DF6E899436
:1002F000010EDB6ADBCF14F0080EE76E1418E8AECF
:1003000002D0E73402D0E750145C1AE28996010E5D
:10031000DBCFE6FF070EE552D880E754146EDF50BE
:1003200014C0E7FFE75204E0E8427F0BE706FCE178
:10033000E8B08982E8A089928986010EDB2ADAD7A3
:100340008984010EE66E64EC12F0E552020EE15C67
:1003500002E2E16AE552E16EE552E7CFD9FF120011
:10036000899A8D92898A8D82898A8D92898A8D82D5
:100370001200D9CFE6FFE1CFD9FF060EE126DE6AF3
:10038000DD6A020EDB6A030EDB6A040EDB6A050E11
:10039000DB6A100E176ED950FC0FE96EFF0EDA20E3
:1003A000EA6E17501F0BEECF14F0EECF15F0EECF24
:1003B00016F006E0D890163215321432E806FAE14B
:1003C00014C0DEFF15C0DDFF080E176ED950FC0FFC
:1003D000E96EFF0EDA20EA6E17501F0BEECF14F015
:1003E000EECF15F0EECF16F006E0D89016321532AB
:1003F0001432E806FAE1020E14C0DBFF030E15C04A
:10040000DBFF070E1A6ED950FC0FE96EFF0EDA20E3
:10041000EA6E1A501F0BEECF17F0EECF18F0EECFAA
:1004200019F006E0D890173618361936E806FAE1C2
:10043000070E1F0B17C014F018C015F019C016F0E6
:1004400006E0D890163215321432E806FAE1040EAE
:1004500014C0DBFF050E15C0DBFFFA0EDBCFE6FF95
:10046000FB0EDBCFE6FF39DFE552E552DECFE6FFDC
:10047000DDCFE6FF32DFE552E552020EDBCFE6FFCD
:10048000030EDBCFE6FF29DFE552E552040EDBCF9A
:10049000E6FF050EDBCFE6FF20DFE552E55260DF29
:1004A000060EE15C02E2E16AE552E16EE552E7CF59
:1004B000D9FF12008B968D80898A8D8212008B96CF
:1004C0008D80899A8D9212008B86898A8D828D808B
:1004D00000008D928D9000D012008B86899A8D82BB
:1004E0008D801200D9CFE6FFE1CFD9FF070EE126BC
:1004F000DE6ADD6A030EDB6A040EDB6A050EDB6A68
:10050000060EDB6A8D728D70898A76DE030EF3CF5C
:10051000DBFF040EF4CFDBFFD950FB0FE96EFF0EBB
:10052000DA20EA6EEE50ED1002E0000E01D0010E6E
:10053000146E156A14BE1568050E14C0DBFF060E96
:1005400015C0DBFFFD0EDBCFF6FFFE0EDBCFF7FFA6
:100550000800020EF5CFDBFFDB5045080FE1D95054
:10056000030FE96EDACFEAFFFF0EEE1805E1ED505A
:1005700003E1010EDE6E01D0DE6ADD6A020EDB50A1
:10058000420826E1030EDBCF16F0040EDBCF17F096
:10059000070ED89017321632E804FBE1050EDBCFC8
:1005A00018F0060EDBCF19F0070ED890193218326A
:1005B000E804FBE116501818146E17501918156E40
:1005C0001450151002E1DE6A02D0010EDE6EDD6A03
:1005D000DECF14F0DDCF15F014C0F3FF15C0F4FF2B
:1005E000070EE15C02E2E16AE552E16EE552E7CF17
:1005F000D9FF1200D9CFE6FFE1CFD9FF040EE126E3
:10060000DE6ADD6A020EDB6A030EDB6A0001A26BA2
:10061000A36B50DFAA0EE66EE66A550EE66EE66E36
:10062000E66AA7DE146E050EE15E1450550EE66E06
:10063000E66AAA0EE66E2A0EE66EE66A9ADE146E88
:10064000050EE15E1450900EE66EE66A550EE66EFB
:10065000E66EE66A8EDE146E050EE15E1450C8DDAD
:10066000000EE66EE66AE66AE66AE66A82DE146E06
:10067000050EE15E1450C0DDF3CFDEFFF4CFDDFFE9
:10068000E4EC11F00009FCE1E66A96EC10F0E552AA
:10069000E4EC11F00009FCE16E0EE66E28EC12F0BD
:1006A000E552E4EC11F00009FCE1DECFE6FFDDCF1E
:1006B000E6FF420E146E1D0E156E166A14C0E6FF9C
:1006C000E66E16C0E6FF840EE66E000EE66E17ECD0
:1006D0000FF0176E070EE15E1750840EE66E000EE7
:1006E000E66E57EC11F0E552E552000EE66EE66A52
:1006F000010EE66EE66AE66A3CDE146E050EE15E09
:1007000014507ADD020EF3CFDBFF030EF4CFDBFFD4
:10071000E4EC11F00009FCE1400EE66E96EC10F0FE
:10072000E552E4EC11F00009FCE16E0EE66E28ECF7
:1007300012F0E552E4EC11F00009FCE1020EDBCF0F
:10074000E6FF030EDBCFE6FF350E146E1D0E156EB1
:10075000166A14C0E6FFE66E16C0E6FF840EE66E6B
:10076000000EE66E17EC0FF0176E070EE15E1750E5
:10077000840EE66E000EE66E57EC11F0E552E5527F
:10078000D9CFE9FFDACFEAFFBF0EEE1829E1ED502D
:1007900027E1D950020FE96EDACFEAFFB70EEE1863
:1007A0001FE1ED501DE10001A269A36BE4EC11F023
:1007B0000009FCE1100EE66E96EC10F0E552E4EC58
:1007C00011F00009FCE16E0EE66E28EC12F0E55225
:1007D000E4EC11F00009FCE1230E146E1D0E1DD097
:1007E000AA0E0001A26FA36BE4EC11F00009FCE17A
:1007F000100EE66E96EC10F0E552E4EC11F00009F4
:10080000FCE16E0EE66E28EC12F0E552E4EC11F01D
:100810000009FCE1120E146E1D0E156E166A14C04E
:10082000E6FFE66E16C0E6FF840EE66E000EE66E8C
:1008300017EC0FF0176E050EE15E1750840EE66E92
:10084000000EE66E57EC11F0E552E552D3DCAA0E2D
:10085000E66EE66A550EE66EE66EE66A8ADD146EB0
:10086000050EE15E1450550EE66EE66AAA0EE66EBF
:100870002A0EE66EE66A7DDD146E050EE15E14500A
:10088000F00EE66EE66A550EE66EE66EE66A71DD1D
:10089000146E050EE15E1450E4EC11F00009FCE169
:1008A000500EE66E96EC10F0E552E4EC11F0000903
:1008B000FCE16E0EE66E28EC12F0E552E4EC11F06D
:1008C0000009FCE1030E146E1D0E156E166A14C0AD
:1008D000E6FFE66E16C0E6FF840EE66E000EE66EDC
:1008E00017EC0FF0176E050EE15E1750840EE66EE2
:1008F000000EE66E57EC11F0E552E55257EC00F0B1
:10090000640EE66E28EC12F0E552040EE15C02E2A1
:10091000E16AE552E16EE552E7CFD9FF1200D9CF87
:10092000E6FFE1CFD9FF020EE126DE6ADD6A60DC78
:10093000140EE66E28EC12F0E552D9CFE9FFDACFBB
:10094000EAFF010EEE1801E1ED504AE0FB0EDBCFAD
:10095000E6FFFC0EDBCFE6FF010EE66E1D0EE66E37
:10096000C1DDE552E552E552E552F3CFDEFFF4CFAB
:10097000DDFFE4EC11F00009FCE1E66A96EC10F012
:10098000E552E4EC11F00009FCE16E0EE66E28EC95
:1009900012F0E552E4EC11F00009FCE1FD0EDBCFB2
:1009A000E6FFFE0EDBCFE6FFEF0E146E1C0E156E9B
:1009B000166A14C0E6FFE66E16C0E6FF840EE66E09
:1009C000000EE66E17EC0FF0176E070EE15E175083
:1009D000840EE66E000EE66E57EC11F0E552ACD7D1
:1009E000E4EC11F00009FCE1E66A96EC10F0E55247
:1009F000E4EC11F00009FCE16E0EE66E28EC12F05A
:100A0000E552E4EC11F00009FCE1FD0EDBCFE6FF5E
:100A1000FE0EDBCFE6FFDD0E146E1C0E156E166AA1
:100A200014C0E6FFE66E16C0E6FF840EE66E000E0A
:100A3000E66E17EC0FF0176E070EE15E1750840E8E
:100A4000E66E000EE66E57EC11F0E552E552020E2E
:100A5000E15C02E2E16AE552E16EE552E7CFD9FFDF
:100A60001200D9CFE6FFE1CFD9FF020EE126DE6A00
:100A7000DD6AF8EC00F0010EE66E64EC12F0E5526F
:100A8000D9CFE9FFDACFEAFF010EEE1801E1ED5010
:100A900045E0FD0EDBCFE6FFFE0EDBCFE6FFDA0E14
:100AA000E66E1C0EE66E1EDDE552E552E552E5529D
:100AB000F3CFDEFFF4CFDDFFE4EC11F00009FCE141
:100AC000400EE66E96EC10F0E552E4EC11F00009F1
:100AD000FCE16E0EE66E28EC12F0E552E4EC11F04B
:100AE0000009FCE1CF0E146E1C0E156E166A14C0C0
:100AF000E6FFE66E16C0E6FF840EE66E000EE66EBA
:100B000017EC0FF0176E050EE15E1750840EE66EBF
:100B1000000EE66E57EC11F0E552B1D7E4EC11F09F
:100B20000009FCE1400EE66E96EC10F0E552E4ECB4
:100B300011F00009FCE16E0EE66E28EC12F0E552B1
:100B4000E4EC11F00009FCE1C40E146E1C0E156EED
:100B5000166A14C0E6FFE66E16C0E6FF840EE66E67
:100B6000000EE66E17EC0FF0176E050EE15E1750E3
:100B7000840EE66E000EE66E57EC11F0E552E5527B
:100B8000020EE15C02E2E16AE552E16EE552E7CF76
:100B9000D9FF1200D9CFE6FFE1CFD9FF90DCAA0E32
:100BA000E66EE66A550EE66EE66EE66AB9EC01F0B0
:100BB000146E050EE15E1450550EE66EE66AAA0E3E
:100BC000E66E2A0EE66EE66AB9EC01F0146E050ECA
:100BD000E15E1450800EE66EE66A550EE66EE66E35
:100BE000E66AB9EC01F0146E050EE15E1450AA0E2F
:100BF000E66EE66A550EE66EE66EE66AB9EC01F060
:100C0000146E050EE15E1450550EE66EE66AAA0EED
:100C1000E66E2A0EE66EE66AB9EC01F0146E050E79
:100C2000E15E1450300EE66EE66AFB0EDBCF14F088
:100C3000FC0EDBCF15F0166A14C0E6FF15C0E6FF08
:100C400016C0E6FFB9EC01F0176E050EE15E175015
:100C5000FB0EDBCFE6FFFC0EDBCFE6FFFD0EDBCFAE
:100C6000E6FFFE0EDBCFE6FF5ADEE552E552E55227
:100C7000E552E552E7CFD9FF1200D9CFE6FFE1CF29
:100C8000D9FF0001FF0EA21964E1A35162E1FB0E3E
:100C9000DBCFE6FFFC0EDBCFE6FFFD0EDBCFE6FF92
:100CA000FE0EDBCFE6FF76DFE552E552E552E55278
:100CB0005AEC02F0AA0EE66EE66A550EE66EE66E95
:100CC000E66AB9EC01F0146E050EE15E1450550EA3
:100CD000E66EE66AAA0EE66E2A0EE66EE66AB9ECE3
:100CE00001F0146E050EE15E1450A00EE66EE66A89
:100CF000550EE66EE66EE66AB9EC01F0146E050E6E
:100D0000E15E1450FB0EDBCFE6FFFC0EDBCFE6FF0F
:100D1000FD0EDBCF14F0FE0EDBCF15F0166A14C00B
:100D2000E6FF15C0E6FF16C0E6FFB9EC01F0176E4E
:100D3000050EE15E1750FB0EDBCFE6FFFC0EDBCFAE
:100D4000E6FF8FDEE552E5526DEC02F057EC00F065
:100D500057D057EC00F0E4EC11F00009FCE1E66A32
:100D600096EC10F0E552E4EC11F00009FCE16E0E97
:100D7000E66E28EC12F0E552E4EC11F00009FCE11B
:100D8000B30EE66E1C0EE66EE4EC10F0E552E55292
:100D9000E4EC11F00009FCE1400EE66E96EC10F078
:100DA000E552E4EC11F00009FCE16E0EE66E28EC71
:100DB00012F0E552E4EC11F00009FCE1FD0EDBCF8E
:100DC000E6FFFE0EDBCFE6FFA40E146E1C0E156EC2
:100DD000166A14C0E6FFE66E16C0E6FF840EE66EE5
:100DE000000EE66E17EC0FF0176E070EE15E17505F
:100DF000840EE66E000EE66E57EC11F0E552E552F9
:100E0000E552E7CFD9FF1200D9CFE6FFE1CFD9FFF6
:100E1000020EE126DE6ADD6A64EC02F00001FF0EDC
:100E2000A21973E1A35171E1000EE66EE66AFD0EB0
:100E3000DBCF14F0FE0EDBCF15F0166A14C0E6FF10
:100E400015C0E6FF16C0E6FFB9EC01F0176E050EFF
:100E5000E15E1750FCEC00F0F3CFDEFFF4CFDDFFD6
:100E6000E4EC11F00009FCE1E66A96EC10F0E552C2
:100E7000E4EC11F00009FCE16E0EE66E28EC12F0D5
:100E8000E552E4EC11F00009FCE1FD0EDBCFE6FFDA
:100E9000FE0EDBCFE6FF9A0E146E1C0E156E166A60
:100EA00014C0E6FFE66E16C0E6FF840EE66E000E86
:100EB000E66E17EC0FF0176E070EE15E1750840E0A
:100EC000E66E000EE66E57EC11F0E552E552E4ECEA
:100ED00011F00009FCE1400EE66E96EC10F0E552D0
:100EE000E4EC11F00009FCE16E0EE66E28EC12F065
:100EF000E552E4EC11F00009FCE1DECFE6FFDDCFC6
:100F0000E6FF920E146E1C0E3ED057EC00F0E4EC9F
:100F100011F00009FCE1E66A96EC10F0E552E4EC11
:100F200011F00009FCE16E0EE66E28EC12F0E552BD
:100F3000E4EC11F00009FCE1B30EE66E1C0EE66E67
:100F4000E4EC10F0E552E552E4EC11F00009FCE1AC
:100F5000400EE66E96EC10F0E552E4EC11F000095C
:100F6000FCE16E0EE66E28EC12F0E552E4EC11F0B6
:100F70000009FCE1FD0EDBCFE6FFFE0EDBCFE6FF56
:100F8000820E146E1C0E156E166A14C0E6FFE66E15
:100F900016C0E6FF840EE66E000EE66E17EC0FF04C
:100FA000176E070EE15E1750840EE66E000EE66EB9
:100FB00057EC11F0E552E552020EE15C02E2E16A03
:100FC000E552E16EE552E7CFD9FF120026EC00F0C2
:100FD00048EC00F052EC00F0FAEC02F0EE0EE66E97
:100FE000E66A030EE66EE66A48DEE552E552E55231
:100FF000E552E00EE66EE66A040EE66EE66A3DDE57
:10100000E552E552E552E552E10EE66EE66A050E5E
:10101000E66EE66A32DEE552E552E552E55200013F
:10102000A269A36B030EE66EE66AEEDEE552E552B8
:10103000E66828EC12F0E552040EE66EE66AE4DE9D
:10104000E552E552E66828EC12F0E552050EE66E30
:10105000E66ADADEE552E552E66828EC12F0DED701
:101060006CEC0DF0FB0EDBCFF3FFDB06F350000959
:101070000AE0BAEC0DF0FA0E25EC0EF0F3E1151CC7
:10108000F1E1010E01D0000E9BEF0DF06CEC0DF0C4
:101090003B0EE12402E3E168E652E16E010EDB6AF9
:1010A000020EDB6AF90EDBCFF6FFFA0EDBCFF7FF9D
:1010B000FB0EDBCFF8FF0800F550DF6EDF5002E1DA
:1010C000BFEF0CF0250EDF5C02E0B2EF0CF0030E78
:1010D000DB6A040EDB6A050EDB6A060EDB6A070EAE
:1010E000DB6AD4EC0CF02D0EDF5C0CE02B0EDF5C29
:1010F00009E0200EDF5C06E0230EDF5C03E0300E2B
:10110000DF5C1AE1DF50300A14E0130A0FE0030A33
:101110000AE00B0A05E0060AE4E1030EDB80E1D7F2
:10112000030EDB82DED7030EDB84DBD7030EDB8608
:10113000D8D7030EDB88D5D72A0EDF5C1BE1D0ECB5
:101140000CF01EEC0DF010E0030EDB80086809685F
:10115000130EDBCF0DF0140EDBCF0EF069EC10F0A8
:10116000040E06C0DBFF03D0130E07EC0DF0D4EC29
:101170000CF00BD0090EDB6A75EC0DF003E0E9EC26
:101180000DF0FAD7090E07EC0DF0030EDBB0DB987B
:101190002E0EDF5C1BE1D4EC0CF02A0EDF5C0BE1C1
:1011A000D0EC0CF01EEC0DF003E1130E59EC0DF039
:1011B000D4EC0CF00BD0090EDB6A75EC0DF003E0FB
:1011C000E9EC0DF0FAD7090E59EC0DF0680EDF5C72
:1011D00007E1D4EC0CF0680EDF5C1DE1030E18D0C3
:1011E000740EDF5C17E07A0EDF5C14E0480EDF5C03
:1011F00006E0540EDF5C03E05A0EDF5C02E1020EF3
:1012000007D06C0EDF5C03E06A0EDF5C04E1010EC8
:10121000ACEC0DF0C9DBDF506E0A01E17FD31E0A92
:1012200001E192D1200A01E18FD13F0A01E149D1C8
:101230001A0A01E146D10D0A01E143D1200A01E178
:1012400040D13A0A01E13DD1200A01E13AD1260A12
:1012500001E135D10D0A01E132D11A0A01E1D9D0FB
:10126000200A4AE0300A1FE0460A0EE0250A01E0A3
:1012700083D3D950F90FE96EFF0EDA20EA6E010E22
:10128000EE5E000EEE5AEE5ABAEC0DF0250EE66E4A
:1012900095DB03E1151C01E169D3B6EC0DF001E229
:1012A0006BD3DB2A69D3080EDB6A040EDB5001081E
:1012B00006E2040EDB047EEC0DF0DB508BDB080E47
:1012C000DB5009E0030EDB50010B05E172DB01E0AE
:1012D0004DD3080EDB6A64DBEFCFDFFF2EEC0EF0A0
:1012E00003E1151C01E142D3B6EC0DF001E3DB2A6A
:1012F00060DB01E141D33AD3070EDB5002080FE176
:10130000FAEC0DF0030EC1EC0DF00E0EEECFDBFF8C
:101310000F0EEECFDBFF100EEECFDBFF20D0F70E6F
:10132000DBCF17F0F80EDBCF18F0020E175E000EC1
:10133000185AF70E17C0DBFFF80E18C0DBFF17C0F6
:10134000E9FF18C0EAFFB1EC0DF0166A0E0E14C0EA
:10135000DBFF0F0E15C0DBFF100E16C0DBFF0E0EFD
:10136000DBCFE6FF0F0EDBCFE6FF100EDBCFE6FF95
:1013700044EC10F0E552E552E552130E07C0DBFFD6
:10138000140E08C0DBFF060EDB5005E0130EF5EC73
:101390000DF001E26ADB19EC0EF002E2130E37DB0E
:1013A000DCEC0DF006E0040EF5EC0DF002E2050EAB
:1013B0002EDB030EDBB005D0FCDA01E0D7D2080E3D
:1013C000DB6A090EDB6A0E0EDBCFF6FF0F0EDBCFFA
:1013D000F7FF100EDBCFF8FF0800F550DF6EDF508F
:1013E00014E01FEC0EF011E22EEC0EF003E1151CE0
:1013F00001E1BCD2BBDB01E3DB2A090EDB2AD950B9
:101400000E0FE96E000ECBDBE7D7D3DA01E1B4D2E1
:10141000ADD2C6DA110EEECFDBFF120EEDCFDBFF41
:10142000110EDBCFE6FF120EDBCFE6FF36EC10F03D
:10143000E552E552130EF3CFDBFF140EF4CFDBFFC2
:10144000060EDB5004E0130ED0DB01E20EDB19ECDC
:101450000EF002E2130EDBDAAFDB05E0040EC5DBB3
:1014600002E2050ED4DA030EDBB005D0A2DA01E009
:101470007DD2080EDB6A090EDB6A110EDBCFE9FFB5
:10148000120EDBCFEAFFEFCFDFFFDF5014E0D7DB38
:1014900012E2E4DB03E1151C01E168D267DB01E342
:1014A000DB2A090EDB2A110EDB2ADBCFE9FF120E45
:1014B000E8E3DB2AE6D77DDA01E15ED257D2030EFC
:1014C000DB8E070EDB0410E195DB040E5ADB0A0EFF
:1014D000EECFDBFF0B0EEECFDBFF0C0EEECFDBFF14
:1014E0000D0EEECFDBFF6CD0070EDB5003082CE1B6
:1014F000030EDBAE0DD0B2DA020E76DAEFCF14F0C7
:10150000156A166A176A14AE39D01568166835D090
:10151000F70EDBCF15F0F80EDBCF16F0020E155EDE
:10152000000E165AF70E15C0DBFFF80E16C0DBFFD3
:1015300015C0E9FF16C0EAFFEFCF14F00A0E14C081
:10154000DBFF0B0EDB6A38D0070EDB50020809E127
:10155000030EDBAE04D059DB16AE10D00ED055DB37
:101560000DD0030EDBAE12D079DA020E3DDAF9DAD5
:10157000166A176A15AE02D016681768E2DA0C0E02
:1015800016C0DBFF0D0E17C0DBFF1AD0F70EDBCF46
:1015900016F0F80EDBCF17F0020E165E000E175A8B
:1015A000F70E16C0DBFFF80E17C0DBFF16C0E9FF11
:1015B00017C0EAFFD6DAC5DA0C0EDB6A0D0EDB6A5D
:1015C000060EDB5005E1010EF36E050EF3CFDBFFD7
:1015D000150EDB6A160EDB6AD950370F146E000E3B
:1015E000DA20156E390E14C0DBFF3A0E15C0DBFF92
:1015F000380EDB6A080EDB6A0A0EAEDADF50780AB4
:1016000012E0200A10E0280A0CE0200A0AE03F0A53
:1016100006E00D0A02E0200A08E1020E05D0080EDD
:1016200003D0080EDF26100E97DA030EDBBE02D0C1
:10163000DB92DB94DB50800B24E08ADAD890030E37
:10164000EB50000A08E6000EEE5C000EEE58000EAD
:10165000EE58000EEE5815E213DA0B680C680D68B0
:101660000E68FEEC0FF00A0E02C0DBFF0B0E03C08B
:10167000DBFF0C0E04C0DBFF0D0E05C0DBFF2D0EE3
:1016800008D0030EDBA202D02B0E03D0DBA408D0BF
:10169000200EF36E170EF3CFDBFF150EDB2A02D000
:1016A000170EDB6A050EDB5003E1B7D901E189D0E3
:1016B000DE0E146E240E156E000E166E070EDBCFB6
:1016C00017F0186A196A1A6A17C00BF018C00CF0E4
:1016D00019C00DF01AC00EF0D3D97CEC11F01450E3
:1016E0000224F36E15500320F46E16500420F86E99
:1016F000F4CFF7FFF3CFF6FF0800090EF5CFDBFFBD
:10170000580EDF5C0FE1610EF36E090E7BD90AE320
:10171000200E146E090EDBCFE7FF1450E75E090EB2
:10172000E7CFDBFF070EDBCF14F0156A166A176AE6
:101730000FDA14C00BF015C00CF016C00DF017C076
:101740000EF0EECF06F0EECF07F0EECF08F0EFCFC1
:1017500009F07CEC11F009C0EDFF08C0EDFF07C0F7
:10176000EDFF06C0EFFF390EDBCFE9FFDB063A0ED7
:10177000DBCFEAFF01E2DB06090EDBCFEFFF150E40
:10178000DB2A4BD995E1030EDBA61DD06F0EDF5C83
:1017900006E1C1D918E3150EDB285BDA14D0780E08
:1017A000DF5C09E0580EDF5C06E0620EDF5C03E000
:1017B000420EDF5C08E1020EF36E160EF3CFDBFF84
:1017C00002D0150EDB6A030EDB50100B0EE0040E88
:1017D000DBCF14F0050EDB50D880145406E2060E61
:1017E000DB5003E1040EDB5034DA95D90AE2050E32
:1017F000DBCFE7FF150EDB50E75E050EE7CFDBFF23
:1018000002D0050EDB6A040EDBCF14F0160E45D9AC
:10181000D880145414E2160EDBCFE6FF150EDBCF92
:10182000E6FF040EDBCFE6FF050EDB50E552E75C7A
:10183000E552D880E754E552D880E7545FD9030ECB
:10184000DB50010B0BE1080EDB5008E0B2D801E0E1
:101850008DD0080EDB50BED8080EDB6A170EDB50A9
:1018600007E088D9170EF1D903E1151C01E17ED0FC
:10187000160EDB5016E07ED9300EE66E9FD802E1E0
:10188000151C74E077D9DFCFE6FFBCEC0FF0E55212
:10189000E552E552F4CF15F00001F31C02E1151CEE
:1018A00065E0050EDBCF14F0160EDB50D880145423
:1018B00009E2050EDBCFE7FF160EDB50E75E050EF3
:1018C000E7CFDBFF300EE66E050ECBD94FE1390EC8
:1018D000DB2ADBCFE9FF3A0E01E3DB2ADBCFEAFFAD
:1018E000090EEFCFDBFFDB500EE044D9090EADD976
:1018F00002E1151C3BE0390EDB2ADBCFE9FF3A0E93
:10190000EDE3DB2AEBD755D831E1160EDBCFE6FF4E
:10191000080EC3D8E552E7245DD82ED0070EDB5061
:10192000030A1CE0010A14E0030A07E07BD9DBCFBD
:10193000EEFF020EDBCFEDFF1FD0F5D8196A17AE10
:1019400002D0186819682CD8BCD819C0EEFF14D082
:10195000EAD817BE186824D8B4D80ED063D9DBCF24
:10196000EFFF0AD07BD905E1151C03E1F368F468A9
:1019700010D0FCD801E3DB2A79D95BEF08F0010E27
:10198000DBCF14F0020EDBCF15F014C0F3FF15C04F
:10199000F4FF3B0EE15C02E2E16AE552E16ECBD07E
:1019A00029D9020EC1EF0DF061D90800F550DF6EA4
:1019B0001200200EE66E080E31EF0EF0BCEC0FF0B8
:1019C000E552E552E552F3CF14F0F4CF15F00001E3
:1019D000F31C1200146E156AD950010F4DD9145022
:1019E000EE261550ED221200185E000E195AF70E61
:1019F00018C0DBFFF80E19C0DBFF18C0E9FF19C0E3
:101A0000EAFF1200DBCFF4FFF350F45C1200DB506E
:101A1000E76E040EE7CFDBFF12000A0EDBCF14F0F7
:101A20000B0EDBCF15F00C0EDBCF16F00D0EDBCF5F
:101A300017F014501510161017101200130EEECFD9
:101A4000DBFF140EEDCFDBFF130EDBCF14F0140E13
:101A5000DBCF15F00001800E15141200F70EDBCF5E
:101A600018F0F80EDBCF19F01200050EDB50E66E11
:101A7000D950130F01D9E552E750EE6EED6A12000E
:101A80000A0EDBCF06F00B0EDBCF07F00C0EDBCF20
:101A900008F00D0EDBCF09F01200DBCFE6FF150ECC
:101AA000DBCFE6FF050EDB50E552E724E552E724E5
:101AB0001200DB50CED8010EF36E060EF3CFDBFF23
:101AC0001200EE50EFCFEAFFE96E16C0EEFF17C02E
:101AD000EEFF18C0EEFF1200D9CFE6FFDACFE6FF27
:101AE000E1CFD9FFE2CFDAFF1200DFCFE6FFE66AEF
:101AF00016EC12F0E552E552F3501200E76E080EB4
:101B0000E7CFDBFF1200EECF14F0EECF15F0EFCFF2
:101B100016F0176A1200050EDBCF14F0150EDB501D
:101B2000D88014541200010EDBCF16F0020EDBCF6A
:101B300017F0186A1200E552E5CFDAFFE7CFD9FFB8
:101B400012000A0E14C0DBFF0B0E15C0DBFF1200E3
:101B5000D9500A0F3CEF0EF0F36E070EF3CFDBFF08
:101B60001200EECF14F0EFCF15F01200010EDB2AB9
:101B7000020E1200FC0EDBCFE6FFFD0EDBCFE6FF10
:101B80001200145E000E155AF70E14C0DBFFF80E9B
:101B900015C0DBFF14C0E9FF15C0EAFF1200DA2010
:101BA000EA6EEF2AEECFF6FF000EEF22EECFF7FF40
:101BB000EF22EECFF8FF1200040EDBCFE6FF130E8C
:101BC000DB50E552E75C9ADFDB5004DF060EDB50AA
:101BD0001200090EDB500A0DF350DF24D00FE76E20
:101BE000090EE7CFDBFFD4EF0CF0DB50F36E050EF0
:101BF00002EF0DF0F70EDBCF14F0F80EDBCF15F08F
:101C00001200DFCFE6FFDEEF0CF028DF030EECDE84
:101C100083EF0DF030EC08F0E552E552E552E55265
:101C200000091200BDDEEE50EFCFEAFFE96E010EB3
:101C30001200130EDB50F36E040E02EF0DF0040ED3
:101C4000DB50F36E090E02EF0DF0DBCFE6FFDEEFA7
:101C50000CF0E76E050EE7CFDBFF12008BDF01EF24
:101C60000EF0DBCFE6FF86DF0AEF0EF0D950F90F5A
:101C7000E96EFF0ECFEF0DF0E96E000EDA20EA6E8E
:021C8000120050
:0E1C82004E6F20726561642066726F6D2025C2
:101C90005800427974653A255800536563746F7231
:101CA0003A2558004E6F20777269746520746F2052
:101CB00025580043686970206E6F742070726573D8
:101CC000656E74004461746120676F6F6420004426
:101CD0006174612021676F6F640042500053656337
:101CE000746F72202558207265616479202000533A
:101CF0006563746F72202558202165726173656475
:101D000000450045786974696E67205344502E2E53
:101D10002E0033395346303430202170726573659C
:101D20006E74003339534630343020646574656313
:101D300074656421004465766963652049443A25E9
:101D400058004D616B65722049443A2558002020A7
:0F1D5000202020202020202020202020202000C4
:101D6000D9CFE6FFE1CFD9FF0F0E831695169594D4
:101D7000959295908C948C928C9020EC00F0300E83
:101D8000E66E31EC11F0E552050EE66EFFEC11F057
:101D9000E552300EE66E31EC11F0E552010EE66EC2
:101DA000FFEC11F0E552320EE66E31EC11F0E55227
:101DB000E4EC11F00009FCE1E4EC11F00009FCE1B5
:101DC000FE0EDBCFE6FF31EC11F0E552E4EC11F052
:101DD0000009FCE1080EE66E31EC11F0E552E4EC8E
:101DE00011F00009FCE10F0EE66E31EC11F0E55246
:101DF000E4EC11F00009FCE1010EE66E31EC11F0AB
:101E0000E552E4EC11F00009FCE1040EE66E31EC61
:101E100011F0E552E4EC11F00009FCE1800EE66EF1
:0E1E200096EC10F0E552E552E7CFD9FF120024
:021E2E00D9CF0A
:101E3000E6FFDACFE6FFE1CFD9FFE2CFDAFFE652E5
:101E4000E652E652E652D950F90F146EFF0EDA2030
:101E5000156E020E14C0DBFF030E15C0DBFF020E71
:101E6000DBCFE6FF030EDBCFE6FFF90EDBCFE6FFAD
:101E7000FA0EDBCFE6FFFB0EDBCFE6FFD950FC0FFF
:101E8000E66EFF0EDA20E66E46EC08F0146E070EE2
:101E9000E15C02E2E16AE552E16E1450F3CFDEFF4D
:101EA000F4CFDDFFFC0EDBCFE9FFFD0EDBCFEAFF59
:101EB000EF6ADECF14F0DDCF15F014C0F3FF15C0CC
:101EC000F4FF040EE15C02E2E16AE552E16EE552E4
:0A1ED000E5CFDAFFE7CFD9FF1200DB
:061EDA00060EF66E000E7C
:101EE000F76E000EF86E00010900F5509D6F0900B5
:101EF000F5509E6F03E19D6701D03DD00900F5507C
:101F0000986F0900F550996F0900F5509A6F090014
:101F10000900F550E96E0900F550EA6E0900090064
:101F20000900F5509B6F0900F5509C6F09000900EE
:101F3000F6CF9FF0F7CFA0F0F8CFA1F098C0F6FF52
:101F400099C0F7FF9AC0F8FF00019B5302E19C5330
:101F500007E00900F550EE6E9B07F8E29C07F9D701
:101F60009FC0F6FFA0C0F7FFA1C0F8FF00019D07CA
:081F7000000E9E5BBFD71200BA
:081F7800D9CFE6FFDACFE6FF46
:101F8000E1CFD9FFE2CFDAFFFB0EDBCF14F0FC0E7E
:101F9000DBCF15F00001800E15141AE1FB0EDBCF2C
:101FA000E9FFFC0EDBCFEAFFEECFF3FFEDCFF4FF4E
:101FB000EE2A000EEF22F3CFE9FFF4CFEAFFFD0E89
:101FC000DBCFEFFFEF50156AF36E15C0F4FF10D0B2
:101FD000FB0EDB50FE0806E1FD0EDBCFE6FF56EC04
:101FE00012F005D0FD0EDBCFE6FF78EC12F0E552E3
:0C1FF000E552E5CFDAFFE7CFD9FF120081
:041FFC0006500B027E
:10200000F3CF02F0F4CF03F00C02F3500326000EDE
:10201000F420046E06500D02F3500426000EF42046
:10202000056E06500E02F350052607500B02F350C2
:102030000326F4500422000E052207500C02F35030
:102040000426F450052207500D02F35005260850CF
:102050000B02F3500426F450052208500C02F350F2
:0C206000052609500B02F3500526120063
:04206C00FE0EE3CFB2
:10207000E9FFFF0EE3CFEAFFF36AF46AEE5203E0F2
:10208000F34AF42AFBD71200FF0EE3CFF8FFE55224
:10209000FF0EE3CFF7FFE552FF0EE3CFF6FFE55269
:1020A000E66AE66AE66A0900F55209E0FD0EE32AEF
:1020B00005E1FE0EE32A02E1FF0EE32AF4D7FD0E4E
:1020C000E3CF07F0FE0EE3CF08F0FF0EE3CF09F0F9
:0220D0001200FC
:0E20D20009C013F008C012F008500D02F4CF40
:1020E00007F0F3CF06F009500E02F4CF09F0F3CF5A
:1020F00008F00D02F3500726F4500822E86A09227E
:1021000012500E02F3500726F4500822E86A092202
:102110000EAE8FEF10F01250085E1350095A13AE36
:0C212000000C0D50085E0E50095A000C17
:04212C00D9CFE6FF22
:10213000E1CFD9FF0F0E95168316FE0EDB508009F6
:10214000F00B83128C948C920AEC00F08C800AECD9
:1021500000F08C900F0E8316FE0EDB38F00BF00BA8
:1021600083120AEC00F08C800AEC00F08C90F00EE8
:0A2170009512E552E7CFD9FF1200E7
:06217A00D9CFE6FFE1CF22
:10218000D9FF0F0E95168316FE0EDB504009F00B9B
:1021900083128C948C920AEC00F08C800AEC00F094
:1021A0008C900F0E8316FE0EDB38F00BF00B8312B3
:1021B0000AEC00F08C800AEC00F08C90F00E951286
:0821C000E552E7CFD9FF120040
:0821C800D9CFE6FFE1CFD9FFFA
:1021D000FD0EDBCFF6FFFE0EDBCFF7FF0800F5505C
:1021E00016E0E4EC11F00009FCE1FD0EDBCFF6FF98
:1021F000FE0EDBCFF7FF0800F550E66E0BEC11F09A
:10220000E552FD0EDB2AFE0EE3E3DB2AE1D7E552C1
:06221000E7CFD9FF120028
:0A221600D9CFE6FFE1CFD9FF0F0E8C
:1022200095168316FE0EDB50F00B83128C828C9475
:102230000AEC00F08C800AEC00F08C900F0E8316F4
:10224000FE0EDB38F00BF00B83120AEC00F08C80F2
:102250000AEC00F08C90F00E9512E552E7CFD9FF12
:0222600012006A
:0E226200D9CFE6FFE1CFD9FF0F0E95168316F8
:10227000FE0EDB50F00B83128C948C920AEC00F073
:102280008C800AEC00F08C900F0E8316FE0EDB386B
:10229000F00BF00B83120AEC00F08C800AEC00F0DB
:0E22A0008C90F00E9512E552E7CFD9FF120098
:0222AE00D9CF86
:1022B000E6FFE1CFD9FFFD0EDBCFE9FFFE0EDBCF5E
:1022C000EAFFEF5015E0E4EC11F00009FCE1FD0E2F
:1022D000DBCFE9FFFE0EDBCFEAFFEF50E66E0BEC43
:1022E00011F0E552FD0EDB2AFE0EE5E3DB2AE3D713
:0822F000E552E7CFD9FF12000F
:0822F800056A046A036A026A28
:10230000200EE76ED89006360736083609360236B4
:102310000336043605360B50025C0C5003580D5042
:1023200004580E50055809E30B50025E0C50035A36
:102330000D50045A0E50055A062AE72EE4D7120013
:10234000D9CFE6FFE1CFD9FFE6528C848C820AEC2C
:1023500000F08C800AEC00F0F00E8314DF6E8C909D
:102360000AEC00F08C800AEC00F083380F0B0F0BA6
:10237000DF128C908C928C94DF50E552E552E7CFBF
:04238000D9FF12006F
:0C238400D9CFE6FFE1CFD9FFE6528C84F0
:102390008C920AEC00F08C800AEC00F0F00E8314B2
:1023A000DF6E8C900AEC00F08C800AEC00F0833831
:1023B0000F0B0F0BDF128C908C947F0EDF14E55205
:0823C000E552E7CFD9FF12003E
:0823C8008C848C920AEC00F0F9
:1023D0008C800AEC00F083AE09D08C900AEC00F0FF
:1023E0008C800AEC00F08C908C94010C8C900AECA0
:0E23F00000F08C800AEC00F08C908C94000CB5
:0223FE00FF0ED0
:10240000E3501C6EEF0E01D0F30EE76EE72E06EFE1
:1024100012F00C0E1B6EE76AE72E0CEF12F01B2E6B
:0C2420000BEF12F01C2E04EF12F0120063
:04242C00F36AF46AF1
:10243000FF0EE124E96EFF0EE220EA6EED6607D0A2
:102440002F0EEF6404D03A0EEF6001D0F32A120091
:10245000FF0EE3501C6E480E01D04C0EE76EE72EC7
:10246000FED7E76AE72EFED71C2EF7D70000120032
:10247000000EF36E00EE00F0060E01D81200EA60C6
:1024800002D0EE6AFCD7F350E9601200EE6AFCD786
:1024900015EE00F025EE00F0F86A019C6DEC0FF0EF
:0C24A00079EC12F0E6EC07F0FBD712001C
:0424AC00FF0EE350EC
:1024B000ACBA04D0AF6AAB8EAC8A949CACA2FED707
:0824C000AD6EF36EF46A120028
:0824C800FF0EE350E84E120084
:0E24D000000000D000D000D0E82EFAD7120095
:0224DE0030319B
:0F24E000323334353637383961626364656600EC
:0224F0001200D8
:0224F2001200D6
:0224F4000000E6
:020000040030CA
:010003000EEE
:010006008178
:00000001FF
