:020000040000FA
:0600000043EF0DF01200B9
:020006001200E6
:0600080032EF02F01200CD
:02000E00C250DE
:08001000040B01E0010E1200D7
:06001800B5EF01F012003B
:02001E000100DF
:0C002000DA1A0000C00000000A00000016
:04002C0000000000D0
:1000300000000000000000000000000000000000C0
:10004000000000000000000000D01200050EE66E67
:1000500013EC0DF0E55212000F0EE66E13EC0DF0EE
:10006000E5521200836A956A280EE66E26EC0AF0C5
:10007000E5528DEC0CF00009FCE1E66A28EC0BF08F
:10008000E552060EE66EC3EC0BF0E5528DEC0CF07B
:100090000009FCE10F0EE66EC3EC0BF0E5528DECAF
:1000A0000CF00009FCE11200960EE66ED9EC0CF0A3
:1000B000E5521200070EE66E900EE66E52EC0CF062
:1000C000E552E552F1DFF28AF28CF28E6A0EE66EAC
:1000D000670EE66EA8EC0CF0E552E5520001846B69
:1000E000856B866B876B806B816B826B836B050E78
:1000F000E66E51EC0DF0E55207EC00F00009FCE172
:100100006BEC0DF007EC00F00009FCE15CEC0DF08D
:10011000F3CF00F0F4CF01F0F3CF26F0F4CF27F0C7
:10012000E5EC02F025C084F026C085F027C086F0FB
:1001300028C087F025C080F026C081F027C082F05B
:1001400028C083F00001C851C9111CE1C0C02AF0C9
:10015000C1C02BF0C2C02CF0C3C02DF080C025F070
:1001600081C026F082C027F083C028F011EC04F093
:10017000010A08E180C0C0F081C0C1F082C0C2F0B5
:1001800083C0C3F00001010EC819A8E1C951A6E15E
:10019000C4C02AF0C5C02BF0C6C02CF0C7C02DF0DB
:1001A00080C025F081C026F082C027F083C028F0EF
:1001B00011EC04F0010A92E180C0C4F081C0C5F0E6
:1001C00082C0C6F083C0C7F089D7046A056A800E72
:1001D000066E3F0E076EC4C02AF0C5C02BF0C6C025
:1001E0002CF0C7C02DF0C0C025F0C1C026F0C2C0A1
:1001F00027F0C3C028F08FEC03F025C008F026C01C
:1002000009F027C00AF028C00BF025C02AF026C04C
:100210002BF027C02CF028C02DF004C025F005C01D
:1002200026F006C027F007C028F0F9EC02F025C040
:1002300000F026C001F027C002F028C003F025C05E
:10024000E6FF26C0E6FF27C0E6FF28C0E6FFDCEC9D
:100250000AF0E552E552E552E55224C0B0F025C05F
:10026000B1F026C0B2F027C0B3F0170E2A6EB70E59
:100270002B6E510E2C6E3B0E2D6E24C025F0B1C09E
:1002800026F0B2C027F0B3C028F08FEC03F0E2EC08
:1002900003F026C0B4F027C0B5F0880EE66E000E5D
:1002A000E66E26C0E6FF27C0E6FFDFEC07F0E5526A
:1002B000E552E552E5528DEC0CF00009FCE1E66AEE
:1002C00028EC0BF0E5528DEC0CF00009FCE1FB0E84
:1002D000E66E190EE66E76EC0BF0E552E5528DEC0B
:1002E0000CF00009FCE10A0EE66E13EC0DF0E5528D
:1002F0008DEC0CF00009FCE1090EE66E28EC0BF029
:10030000E5528DEC0CF00009FCE1880EE66E000E63
:10031000E66EE9EC0BF0E552E5528DEC0CF00009CD
:10032000FCE10A0EE66E13EC0DF0E5528DEC0CF0DC
:100330000009FCE10B0EE66E28EC0BF0E5528DECAB
:100340000CF00009FCE1F50EE66E190EE66E76EC97
:100350000BF0E552E5528DEC0CF00009FCE10A0EC1
:10036000E66E13EC0DF0E5521200D8CFE4FFE0CFBB
:10037000E4FFE46EDACFE4FFE2CFDAFFE9CFE4FF97
:10038000EACFE4FFF6CFE4FFF7CFE4FFF5CFE4FFD9
:10039000F3CFE4FFF4CFE4FFFACFE4FF00EE20F068
:1003A000140EE80403E3EECFE4FFFBD700EE00F009
:1003B000200EE80403E3EECFE4FFFBD7E652F29C05
:1003C000F29AF250040B09E00001C851C91105E18D
:1003D000010EC86FC96BF2946DDEF250040B18E089
:1003E0000001010EC81914E1C95112E18DEC0CF0A5
:1003F0000009FCE1010EE66EC3EC0BF0E5528DEC5A
:100400000CF00009FCE1E66A28EC0BF0E552DDDEB9
:10041000F28EE55200EE1FF0200EE80403E3E5CF74
:10042000EDFFFBD700EE33F0140EE80403E3E5CF55
:10043000EDFFFBD7E5CFFAFFE5CFF4FFE5CFF3FF04
:10044000E5CFF5FFE5CFF7FFE5CFF6FFE5CFEAFF14
:10045000E5CFE9FFE5CFDAFFE550E5CFE0FFE5CFF7
:10046000D8FF1000DACFE4FFE2CFDAFFE9CFE4FFF4
:10047000EACFE4FFF6CFE4FFF7CFE4FFF5CFE4FFE8
:10048000F3CFE4FFF4CFE4FFFACFE4FF00EE20F077
:10049000140EE80403E3EECFE4FFFBD700EE00F018
:1004A000200EE80403E3EECFE4FFFBD7E652F29E12
:1004B000F2A229D08DEC0CF00009FCE1010EE66EF1
:1004C000C3EC0BF0E5528DEC0CF00009FCE1E66AA0
:1004D00028EC0BF0E5528DEC0CF00009FCE1E80E85
:1004E000E66E190EE66E76EC0BF0E552E5528DECF9
:1004F0000CF00009FCE10A0EE66E13EC0DF0E5527B
:10050000F298F292D7DDF288F28EE55200EE1FF0FB
:10051000200EE80403E3E5CFEDFFFBD700EE33F058
:10052000140EE80403E3E5CFEDFFFBD7E5CFFAFFB8
:10053000E5CFF4FFE5CFF3FFE5CFF5FFE5CFF7FF1C
:10054000E5CFF6FFE5CFEAFFE5CFE9FFE5CFDAFF3C
:1005500011000001C86BC96BC06BC16BC26BC36B70
:10056000C46BC56BC66BC76BD08EF19CF288F194DF
:10057000F28AF294F28E76DD8DEC0CF00009FCE14B
:10058000010EE66EC3EC0BF0E5528DEC0CF00009A9
:10059000FCE1E66A28EC0BF0E5528DEC0CF000096A
:1005A000FCE1DE0EE66E190EE66E76EC0BF0E5521F
:1005B000E5528DEC0CF00009FCE10A0EE66E13EC3E
:0605C0000DF0E552FFD72B
:0A05C6002F9E08D02F9E27AE05D00F
:1005D000266C271EE86A27222F8E27C021F026C00E
:1005E00020F0336A326A8E0E226E236A8BEF04F09B
:1005F0002D7E2F6AC7EC04F0DFEC04F02FB66FEF0E
:1006000004F02FA20AD02FAA03D02FBE6FEF04F060
:100610002FA47BEF04F078EF04F02FAA05D02FACC5
:100620007BEF04F078EF04F02FA00AD02FA808D0B9
:100630002FBE04D02FA402D084EF04F088EF04F082
:10064000326A236A2D50285C316E10E325C033F0E6
:1006500026C020F027C021F028C030F02AC025F0A5
:100660002BC026F02CC027F02F3A09D02AC033F037
:100670002BC020F02CC021F02DC030F0316C2F9E0B
:100680002FBC2F8E30C022F02FB0B7EF04F01A0E1F
:100690003160B7EF04F0226A286A2FA408D0256CD5
:1006A000261E271E281EE86A2622272228222FAC73
:1006B00008D0336C201E211E221EE86A202221222F
:1006C0002222246A315207E028342732263225328A
:1006D0002432312EF9D72550332626502022275098
:1006E00021222850222224C032F02F9E22AE0BD08D
:1006F000326C331E201E211E221EE86A3322202265
:10070000212222222F8E22A006D0D8802132203210
:1007100033323232302A30C022F08BEF04F02F6AAD
:10072000C7EC04F0DFEC04F02FB66FEF04F02FA25B
:1007300005D02FBA6FEF04F076EF04F02FBA82EFF6
:1007400004F02FA005D02FB86FEF04F082EF04F073
:100750002FB876EF04F0236A7F0E2824226EE86A11
:1007600023222D50225EE86A235A1A0E306E286A20
:10077000326A336A206A216A2A50255E2B50265A33
:100780002C50275A000E285A09E72A5025262B50AC
:1007900026222C502722000E282201D0328AD890FF
:1007A0002536263627362836D89032363336203648
:1007B0002136302EE1D7275026102510D8A4328AB2
:1007C0008BEF04F02F6AC7EC04F02FB6ECEF03F0C8
:1007D0002FA20ED02FB405D07F0E276EFF0E266EEF
:1007E0001FD0800E276E266A1BD0276A266A18D073
:1007F0002FB0FBD78F0E2860EDD77E0E2864F5D77B
:100800008E0E285C05E0D89027322632282AF8D7A9
:100810002FA406D0266C271EE86A272227AEE5D72C
:1008200012001AEC04F02FB6000C2FB0000C2FB4FD
:10083000000C010C2F6AC7EC04F0DFEC04F02FB6BB
:1008400012002FAE08D02FA004D02FA802D02F80E6
:1008500012002F9012002D50285C0BE12C50275CC9
:1008600008E12B50265C05E12A50255C02E12F802F
:100870001200D8A002D02F8E10D028502DC028F002
:100880002D6E27502CC027F02C6E26502BC026F042
:100890002B6E25502AC025F02A6E2D50285C10E0C2
:1008A000FF0F09E02F902FB403D02FAE2F8412003A
:1008B0002FAE2F9412002D2AD8902C322B322A32B0
:1008C0002A50255E2B50265A2C50275A27BEEAD78D
:1008D000D890253626362736282EF8D7C8D77F0E4B
:1008E000286EFF0E276E266E256E12007F0E2FBE1D
:1008F000FF0E286E02D07F0E286E800E276E266AAD
:10090000256AF3D72FAE04D0800E286E276AF7D75A
:10091000286A276AF4D72150201033103210F8E0EB
:1009200023BEF0D721BE0CD022502310EBE0D8908C
:1009300032363336203621362206D8A02306F2D7A7
:100940002350D4E12228D2E032AE11D07F0E3214EF
:1009500002E133A00CD0332AE86A2022212207E3E7
:10096000D880213220323332222A2228BFE022507E
:10097000C9E033C025F020C026F02134276E223094
:10098000286E2732289E2FBE288E75EF04F027365A
:10099000283602E32F842F7E06E12F80286A276AFB
:1009A000266A256A1200282803E0D8802732120020
:1009B000D890273202E12F8212002F8612002C36A7
:1009C0002D3602E32F8C2F7E06E12F882D6A2C6AAC
:1009D0002B6A2A6A12002D2803E0D8802C321200DC
:1009E000D8902C32EAE12F8A12002F6AC7EC04F06B
:1009F000DFEC04F02FB66FEF04F02FA205D02FB874
:100A00006FEF04F076EF04F02FAA05D02FB06FEF50
:100A100004F076EF04F02FB002D02FA802D082EFBE
:100A200004F0236A2D502824226EE86A23227E0EC9
:100A3000225EE86A235A326A336A206A216A2C509D
:100A40002702F4CF21F0F3CF20F02B502702F350F0
:100A50003326F4502022000E21222C502602F3507F
:100A60003326F4502022000E21222A502702F35070
:100A70003226F4503322000E202221222B5026024F
:100A8000F3503226F4503322000E202221222C5023
:100A90002502F3503226F4503322000E2022212268
:100AA0002A502602F4503226000E33222022212220
:100AB0002B502502F4503226000E33222022212210
:040AC0008BEF04F0C4
:0C0AC400D9CFE6FFDACFE6FFE1CFD9FF83
:100AD000E2CFDAFF260EE12402E3E168E652E16E9E
:100AE000D950050FE1D90BEC09F0006E060EE15C60
:100AF00002E2E16AE552E16E0050DF6E800EDF5CDB
:100B000005E00B0EDB5012E0DF0410E0210E0001C7
:100B1000CA6FCB6B010EDB68020EDB68030EDB686D
:100B20007F0EF36E040EF3CFDBFF8FD1040EDF5C7C
:100B30000EE13EDA010EEECFDBFF020EEECFDBFF61
:100B4000030EEECFDBFF040EEECFDBFF7ED1DF0422
:100B500010E1210E0001CA6FCB6B010EDB6A020EA1
:100B6000DB6A800EF36E030EF3CFDBFF040EDB684F
:100B70006CD1D9500C0F98D979EC08F0006E060EA4
:100B8000E15C02E2E16AE552E16E0050FA0E24C037
:100B9000DBFFFB0E25C0DBFFFC0E26C0DBFFFD0EDE
:100BA00027C0DBFFA6D9F30E2A6E040E2B6E350E7E
:100BB0002C6E3F0E87D911EC04F0010A09E1B3D97C
:100BC00084D9F8EC02F067D9EDD984D9ACD916D024
:100BD0000C0EDB060D0E01E2DB068BD92A6A2B6AAE
:100BE0002C6A3F0E6FD976D9160EDBCF04F0170EA4
:100BF000DBCF05F0180EDBCF06F0190E66D9F5EC49
:100C000004F049D9CFD9F9EC02F01A0E25C0DBFF68
:100C10001B0E26C0DBFF1C0E27C0DBFF1D0E28C0ED
:100C2000DBFF160EDBCF25F0170EDBCF26F0180EFC
:100C3000DBCF27F0190EDBCF28F01A0EDBCF2AF01E
:100C40001B0EDBCF2BF01C0EDBCF2CF01D0EDBCFF1
:100C50002DF08FEC03F01FD9120E25C0DBFF130E11
:100C600026C0DBFF140E27C0DBFF150E28C0DBFFFC
:100C70004DD9120EDBCF2AF0130EDBCF2BF0140E62
:100C8000DBCF2CF0150E62D90E0E25C0DBFF0F0E48
:100C900026C0DBFF100E27C0DBFF110E28C0DBFFD4
:100CA0003D0EF36E1E0EF3CFDBFF7E0EF36E1F0EB6
:100CB000F3CFDBFF0D0EF36E200EF3CFDBFFBF0E85
:100CC000F36E210EF3CFDBFF0E0EDBCF00F00F0E25
:100CD000DBCF01F0100EDBCF02F0110EDBCF03F003
:100CE0003A0E2A6E3F0E2B6ED40E2C6EC00EEAD832
:100CF000F9EC02F0220E25C0DBFF230E26C0DBFF3D
:100D0000240E27C0DBFF250E28C0DBFF0E0EDBCF35
:100D100025F00F0EDBCF26F0100EDBCF27F0110EE3
:100D2000DBCF28F01E0EDBCF2AF01F0EDBCF2BF01F
:100D3000200EDBCF2CF0210E09D9220EDBCF2AF0BA
:100D4000230EDBCF2BF0240EDBCF2CF0250EDBCFD8
:100D50002DF08FEC03F007D9120EDBCF00F0130E4D
:100D6000DBCF01F0140EDBCF02F0150EDBCF03F06A
:100D7000CDD8010EDBCF2AF0020EDBCF2BF0030E15
:100D8000DBCF2CF0040EE2D825C004F026C005F01D
:100D900027C006F028C007F078D8046A800E056ED8
:100DA000310E066E3F0E076EC9D825C008F026C06A
:100DB00009F027C00AF028C00BF0CCD8E1D8F5EC38
:100DC00004F069D8830E146E800E156E5E0E166EDA
:100DD000B90E176EB3D825C018F026C019F027C079
:100DE0001AF028C01BF0B6D814C025F015C026F0A4
:100DF00016C027F017C028F0F5EC04F025C010F05D
:100E000026C011F027C012F028C013F0010EDBCF6E
:100E10001CF0020EDBCF1DF0030EDBCF1EF0040E24
:100E2000DBCF1FF01CC02AF01DC02BF01EC02CF021
:100E30001FC02DF0F9EC02F025C00CF026C00DF01B
:100E400027C00EF028C00FF020D8010EDBCF00F035
:100E5000020EDBCF01F0030EDBCF02F0040EDBCF7E
:100E600003F000C024F001C025F002C026F003C04A
:100E700027F0260EE15C02E2E16AE552E16EE552FE
:100E8000E5CFDAFFE7CFD9FF120064D882D8F9ECBA
:100E900002F0B3EF07F025C000F026C001F027C034
:100EA00002F028C003F01200E66E000EDA20E66EB3
:100EB0007FD8EECFE6FFEECFE6FFEECFE6FFEFCF37
:100EC000E6FF12002D6EC9EF07F0DBCF07F06AD8FE
:100ED000C0EF07F0F8EC02F0160E25C0DBFF170E8E
:100EE00026C0DBFF180E27C0DBFF190E28C0DBFF72
:100EF0001200FA0EDBCF00F0FB0EDBCF01F0FC0E90
:100F0000DBCF02F0FD0EDBCF03F01200120EDBCFC1
:100F100025F0130EDBCF26F0140EDBCF27F0150ED5
:100F2000DBCF28F01200FA0EDBCF04F0FB0EDBCF94
:100F300005F0FC0EDBCF06F0FD0E12000C0EDBCF31
:100F400026F00D0EDBCF27F0E5EF02F0DBCF2DF022
:100F5000F5EF04F025C02AF026C02BF027C02CF0B6
:100F600028C02DF01200010E25C0DBFF020E26C0A6
:100F7000DBFF030E27C0DBFF040E28C0DBFF1200DF
:100F800004C025F005C026F006C027F007C028F0F1
:100F9000120000C025F001C026F002C027F003C0F7
:100FA00028F012002A6A2B6A2C6A3F0E2D6E12005E
:0E0FB000D950FA0FE96EFF0EDA20EA6E120039
:020FBE00D9CF89
:100FC000E6FFDACFE6FFFA0EE3CFD9FFFB0EE3CF61
:100FD000DAFFFD0EE35209E72D0EDE6EFC0EE31E76
:100FE000E32AFD0ED8B4E306E31EE652E652E652CB
:100FF000FD0EE124E76EFF0EE220E46EE652F70EEE
:10100000E3CFE6FFF70EE3CFE6FF4FEC08F0F90E73
:10101000E124E96EFF0EE220EA6E3FEC08F00AE1FF
:101020003CEC08F009E13FEC08F008E13CEC08F08A
:1010300007E108D04AEC08F045EC08F04AEC08F06B
:1010400045EC08F04AEC08F0DE6AF90EE126FF0EE6
:10105000E222FF0EE3CFDAFFE552FF0EE3CFD9FF26
:10106000E552FC0EE124E96EFF0EE220EA6EEECFBF
:10107000F3FFEFCFF4FF1200EF380F0B1200EF5029
:101080000F0B02E1EE52D8841200EF380F0B300F35
:10109000DE6E1200EE500F0B300FDE6E1200FC0EF3
:1010A000E3CFE9FFFD0EE3CFEAFF100EE66EEE6A36
:1010B000EE6AEF6AD890FD0EE336FE0EE336ED36AB
:1010C000ED36EF36FF0EE30609E070EC08F0EE5265
:1010D00070EC08F0EE5270EC08F0EDD7E56E1200FF
:1010E000030EEF24E8B6EF6E300EEF24E8BEEF6E8D
:0210F000000CF2
:0E10F200D9CFE6FFDACFE6FFE1CFD9FFE2CF9C
:10110000DAFF0C0EE12402E3E168E652E16ED95009
:10111000FA0FE96EFF0EDA20EA6E010EEECFDBFF6A
:10112000020EEECFDBFF030EEECFDBFF040EEECFA1
:10113000DBFF63D8D950010FE96E000EDA20EA6EAA
:10114000EECFE6FFEECFE6FFEECFE6FFEFCFE6FF16
:101150000BEC09F0006E060EE15C02E2E16AE5527A
:10116000E16E0050DF6E850EDF1404E04DD8EE6AAC
:10117000ED6A23D0090EDBCF00F00A0EDBCF01F0C1
:10118000820E0026FF0E01223FD800C0EEFF01C0F4
:10119000EDFF7E0EF36E090EF3CFDBFF0A0EDB6A66
:1011A000D950010FE66E000EDA20E66E26D899ECD3
:1011B00009F0E552E552E552E552010EDBCF00F0B1
:1011C000020EDBCF01F0030EDBCF02F0040EDBCF0B
:1011D00003F000C024F001C025F002C026F003C0D7
:1011E00027F00C0EE15C02E2E16AE552E16EE552A5
:1011F000E5CFDAFFE7CFD9FF1200D950050FE66E31
:10120000000EDA20E66E1200F80EDBCFE9FFF90ED1
:06121000DBCFEAFF120033
:0A121600D9CFE6FFDACFE6FFE1CF03
:10122000D9FFE2CFDAFFE652006801687F0E026E56
:10123000036AD950FA0FE96EFF0EDA20EA6EEE501B
:101240000016EE500116EE500216EE5003166AD844
:1012500000C0EEFF01C0EEFF02C0EEFF03C0EEFFD4
:10126000FD0EDB50800B02E0010E01D0000EE66E99
:1012700059D8060EE926000EEA22E552E750EF6E35
:10128000FC0EDBCF00F0FD0EDBCF01F0D890003676
:101290000136FC0E00C0DBFFFD0E01C0DBFFDB50A2
:1012A000E66E40D8040EE926000EEA22E552E75029
:1012B000EE6EED6AFD0EDB50006E016AFF0E001847
:1012C00018E1015016E12ED8EECF00F0EECF01F07C
:1012D000EECF02F0EFCF03F0005001100210031028
:1012E00006E0210E0001CA6FCB6B800E0BD0040EFE
:1012F00009D0FD0EDB5008E115D8EE6AEE6AEE6A01
:10130000EE6A010EDF6E06D0020EDF6E0BD8EE52D3
:10131000EE52EE8EDF50E552E552E5CFDAFFE7CF31
:10132000D9FF1200F80EDBCFE9FFF90EDBCFEAFFA1
:021330001200A9
:0E133200D9CFE6FFDACFE6FFE1CFD9FFE2CF59
:10134000DAFF5BD8013411E20050FE08000E0154B0
:101350000CE276D805E06CD8800EEE6EEE6847D0D1
:1013600067D8800EEE6E7F0E0ED047D8D890015011
:1013700004E6010E005C000E01580BE261D805E0A6
:1013800057D8EE6A800EEE6E32D052D8EE6AEE6A10
:101390002ED047D8EECF00F0EECF01F0EECF02F026
:1013A000EFCF03F032D800C0EEFF01C0EEFF02C065
:1013B000EEFF03C0EEFF21D80050010B05E025D859
:1013C000020E3AD8EF8E04D020D8020E35D8EF9E08
:1013D00014D8D8900132003218D8030E2DD800C08E
:1013E000EFFF1AD804E011D8030E26D8EF8EE5528D
:1013F000E5CFDAFFE7CFD9FF120013D8040E1CD8CF
:10140000EECF00F0EFCF01F01200FA0EDBCFE9FFD4
:10141000FB0EDBCFEAFF120004D8060E0DD8EF500A
:101420001200FC0EDBCFE9FFFD0EDBCFEAFF12005E
:10143000ECDFEE6AEE6A1200E926000EEA221200E4
:0C144000220E0001CA6FCB6B0CEF0AF00B
:04144C00D9CFE6FF0F
:10145000E1CFD9FF0F0E831695169594959295902E
:101460008C948C928C902CEC00F0300EE66EC3ECD9
:101470000BF0E552050EE66EC2EC0CF0E552300EB4
:10148000E66EC3EC0BF0E552010EE66EC2EC0CF01A
:10149000E552320EE66EC3EC0BF0E5528DEC0CF02B
:1014A0000009FCE18DEC0CF00009FCE1FE0EDBCF45
:1014B000E6FFC3EC0BF0E5528DEC0CF00009FCE10B
:1014C000080EE66EC3EC0BF0E5528DEC0CF0000953
:1014D000FCE10F0EE66EC3EC0BF0E5528DEC0CF068
:1014E0000009FCE1010EE66EC3EC0BF0E5528DEC59
:1014F0000CF00009FCE1040EE66EC3EC0BF0E552C3
:101500008DEC0CF00009FCE1800EE66E28EC0BF08F
:0A151000E552E552E7CFD9FF1200C3
:06151A001E0EF66E000E2D
:10152000F76E000EF86E00010900F550BB6F090060
:10153000F550BC6F03E1BB6701D03DD00900F55009
:10154000B66F0900F550B76F0900F550B86F090084
:101550000900F550E96E0900F550EA6E090009002E
:101560000900F550B96F0900F550BA6F090009007C
:10157000F6CFBDF0F7CFBEF0F8CFBFF0B6C0F6FFA4
:10158000B7C0F7FFB8C0F8FF0001B95302E1BA5382
:1015900007E00900F550EE6EB907F8E2BA07F9D78F
:1015A000BDC0F6FFBEC0F7FFBFC0F8FF0001BB071C
:0815B000000EBC5BBFD7120066
:0815B800D9CFE6FFDACFE6FF10
:1015C000E1CFD9FFE2CFDAFFE150FA0FE96EFF0E6B
:1015D000E220EA6EEECFE6FFEECFE6FFEECFE6FFCB
:1015E000EFCFE6FF62EC05F0E552E552E552E55239
:1015F00024C004F025C005F026C006F027C007F07F
:10160000D90E2A6E5B0E2B6EDE0E2C6E3E0E2D6EEC
:1016100024C025F005C026F006C027F007C028F03A
:10162000F5EC04F025C000F026C001F027C002F060
:1016300028C003F025C024F026C025F027C026F0DE
:1016400028C027F0E552E5CFDAFFE7CFD9FF120037
:10165000D9CFE6FFE1CFD9FF0F0E95168316FE0E08
:10166000DB508009F00B83128C948C9216EC00F006
:101670008C8016EC00F08C900F0E8316FE0EDB387B
:10168000F00BF00B831216EC00F08C8016EC00F0DF
:0E1690008C90F00E9512E552E7CFD9FF1200B4
:02169E00D9CFA2
:1016A000E6FFE1CFD9FF0F0E95168316FE0EDB5035
:1016B0004009F00B83128C948C9216EC00F08C8015
:1016C00016EC00F08C900F0E8316FE0EDB38F00B3C
:1016D000F00B831216EC00F08C8016EC00F08C906E
:0C16E000F00E9512E552E7CFD9FF120082
:0416EC00D9CFE6FF6D
:1016F000E1CFD9FFFD0EDBCFF6FFFE0EDBCFF7FF0C
:101700000800F55016E08DEC0CF00009FCE1FD0E30
:10171000DBCFF6FFFE0EDBCFF7FF0800F550E66EDD
:101720009DEC0BF0E552FD0EDB2AFE0EE3E3DB2A17
:0A173000E1D7E552E7CFD9FF120020
:06173A00D9CFE6FFE1CF6C
:10174000D9FF0F0E95168316FE0EDB50F00B831299
:101750008C828C9416EC00F08C8016EC00F08C904F
:101760000F0E8316FE0EDB38F00BF00B831216EC17
:1017700000F08C8016EC00F08C90F00E9512E55283
:06178000E7CFD9FF1200C3
:0A178600D9CFE6FFE1CFD9FF0F0E27
:1017900095168316FE0EDB50F00B83128C948C9200
:1017A00016EC00F08C8016EC00F08C900F0E831677
:1017B000FE0EDB38F00BF00B831216EC00F08C8081
:1017C00016EC00F08C90F00E9512E552E7CFD9FFA1
:0217D000120005
:0E17D200D9CFE6FFE1CFD9FFFD0EDBCFE9FF57
:1017E000FE0EDBCFEAFFEF5015E08DEC0CF00009A8
:1017F000FCE1FD0EDBCFE9FFFE0EDBCFEAFFEF5091
:10180000E66E9DEC0BF0E552FD0EDB2AFE0EE5E3E5
:0C181000DB2AE3D7E552E7CFD9FF120036
:04181C00D9CFE6FF3B
:10182000E1CFD9FFE6528C848C8216EC00F08C80DC
:1018300016EC00F0F00E8314DF6E8C9016EC00F0C6
:101840008C8016EC00F083380F0B0F0BDF128C909E
:101850008C928C94DF50E552E552E7CFD9FF12000D
:10186000D9CFE6FFE1CFD9FFE6528C848C9216ECFB
:1018700000F08C8016EC00F0F00E8314DF6E8C907C
:1018800016EC00F08C8016EC00F083380F0B0F0B79
:10189000DF128C908C947F0EDF14E552E552E7CF77
:0418A000D9FF12005A
:0C18A400D9CFE6FFE1CFD9FFC26AFE0EEB
:1018B000DB50C16EFD0EDB50380B006EFE0EDB50B0
:1018C000040DF350C00B0010C26EFD0EDBAE03D052
:1018D0009E9C9D8CF28CC280E552E7CFD9FF12000E
:1018E000D9CFE6FFE1CFD9FF020EE126D650DF6E59
:1018F000010ED7CFDBFFDECF00F0DDCF01F000C05F
:10190000F3FF01C0F4FF020EE15C02E2E16AE5527E
:0A191000E16EE552E7CFD9FF1200A7
:06191A008C848C9216EC97
:1019200000F08C8016EC00F083AE09D08C9016ECA1
:1019300000F08C8016EC00F08C908C94010C8C9054
:1019400016EC00F08C8016EC00F08C908C94000C5F
:10195000D9CFE6FFE1CFD9FF020EE126FD0EDBCFA6
:10196000DEFFDBCFDDFF010EDB50D76EDF50D66E22
:10197000020EE15C02E2E16AE552E16EE552E7CF78
:04198000D9FF120079
:0C198400FF0EE350356EEF0E01D0F30EA5
:10199000E76EE72EC9EF0CF00C0E346EE76AE72E07
:1019A000CFEF0CF0342ECEEF0CF0352EC7EF0CF04D
:0219B000120023
:0E19B200D9CFE6FFE1CFD9FFFE0EDB507F0B51
:1019C000D56ED76AD66AF294FE0EDBAE02D0F28AEA
:0E19D00001D0F29AD58EE552E7CFD9FF120072
:0219DE00507245
:1019E000657373206B6579004D6561737572696EFF
:1019F000672E2E2E006D672F644C00476C75636F49
:041A000073653A00D0
:0C1A0400D9CFE6FFE1CFD9FFFE0EDB508A
:101A1000380B006EC30EC2140010C26EC284E552B1
:061A2000E7CFD9FF120020
:0A1A2600FF0EE350356E480E01D0AC
:101A30004C0EE76EE72EFED7E76AE72EFED7352E6F
:061A4000F7D700001200C0
:0A1A4600D9CFE6FFE1CFD9FFC70EAC
:101A5000C214006EFE0EDB50380B0010C26EE55251
:061A6000E7CFD9FF1200E0
:0A1A6600000EF36E00EE00F0060E15
:101A700001D81200EA6002D0EE6AFCD7F350E960A8
:061A80001200EE6AFCD723
:0A1A860015EE00F025EE00F0F86AFE
:101A90002F9C8DEC0AF003EC00F0A9EC02F0FBD7D0
:021AA000120032
:0E1AA200FF0EE350E84E1200000000D000D00E
:081AB00000D0E82EFAD7120065
:081AB800C450036E026AC35022
:0A1AC0000210F36E03C0F4FF1200E1
:061ACA00D59EF29A120005
:061AD000C2909D9C120073
:041AD600C2841200B4
:061ADA0000000000000006
:041AE0000000000002
:020000040030CA
:0100010022DC
:010003000EEE
:010006008178
:00000001FF
