:020000040000FA
:0600000078EF0EF0120083
:020006001200E6
:06000800E9EF09F012000F
:02000E000100EF
:0C001000561D00008000000018000000D9
:04001C004AEC05F0B5
:10002000FB0EDBCFF3FFDB06F35000090AE098EC90
:1000300005F0FA0E03EC06F0F3E1151CF1E1010EF8
:1000400001D0000E79EF05F04AEC05F03B0EE124FB
:1000500002E3E168E652E16E010EDB6A020EDB6A42
:10006000F90EDBCFF6FFFA0EDBCFF7FFFB0EDBCF8F
:10007000F8FF0800F550DF6EDF5002E19DEF04F05D
:10008000250EDF5C02E090EF04F0030EDB6A040E45
:10009000DB6A050EDB6A060EDB6A070EDB6AB2EC72
:1000A00004F02D0EDF5C0CE02B0EDF5C09E0200E6F
:1000B000DF5C06E0230EDF5C03E0300EDF5C1AE15C
:1000C000DF50300A14E0130A0FE0030A0AE00B0ABB
:1000D00005E0060AE4E1030EDB80E1D7030EDB82D4
:1000E000DED7030EDB84DBD7030EDB86D8D7030E07
:1000F000DB88D5D72A0EDF5C1BE1AEEC04F0FCEC0C
:1001000004F010E0030EDB8008680968130EDBCFF3
:100110000DF0140EDBCF0EF047EC08F0040E06C015
:10012000DBFF03D0130EE5EC04F0B2EC04F00BD0CF
:10013000090EDB6A53EC05F003E0C7EC05F0FAD7D3
:10014000090EE5EC04F0030EDBB0DB982E0EDF5C4D
:100150001BE1B2EC04F02A0EDF5C0BE1AEEC04F024
:10016000FCEC04F003E1130E37EC05F0B2EC04F004
:100170000BD0090EDB6A53EC05F003E0C7EC05F089
:10018000FAD7090E37EC05F0680EDF5C07E1B2EC38
:1001900004F0680EDF5C1DE1030E18D0740EDF5C06
:1001A00017E07A0EDF5C14E0480EDF5C06E0540EC8
:1001B000DF5C03E05A0EDF5C02E1020E07D06C0E3A
:1001C000DF5C03E06A0EDF5C04E1010E8AEC05F0FF
:1001D000C9DBDF506E0A01E17FD31E0A01E192D133
:1001E000200A01E18FD13F0A01E149D11A0A01E158
:1001F00046D10D0A01E143D1200A01E140D13A0A7A
:1002000001E13DD1200A01E13AD1260A01E135D1CF
:100210000D0A01E132D11A0A01E1D9D0200A4AE0DF
:10022000300A1FE0460A0EE0250A01E083D3D950C8
:10023000F90FE96EFF0EDA20EA6E010EEE5E000E97
:10024000EE5AEE5A98EC05F0250EE66E95DB03E1CA
:10025000151C01E169D394EC05F001E26BD3DB2AB4
:1002600069D3080EDB6A040EDB50010806E2040EB7
:10027000DB045CEC05F0DB508BDB080EDB5009E0A7
:10028000030EDB50010B05E172DB01E04DD3080EDC
:10029000DB6A64DBEFCFDFFF0CEC06F003E1151C3B
:1002A00001E142D394EC05F001E3DB2A60DB01E1DC
:1002B00041D33AD3070EDB5002080FE1D8EC05F02A
:1002C000030E9FEC05F00E0EEECFDBFF0F0EEECF10
:1002D000DBFF100EEECFDBFF20D0F70EDBCF17F0E9
:1002E000F80EDBCF18F0020E175E000E185AF70E4C
:1002F00017C0DBFFF80E18C0DBFF17C0E9FF18C0FE
:10030000EAFF8FEC05F0166A0E0E14C0DBFF0F0E2D
:1003100015C0DBFF100E16C0DBFF0E0EDBCFE6FFB5
:100320000F0EDBCFE6FF100EDBCFE6FFE2EC0BF0AB
:10033000E552E552E552130E07C0DBFF140E08C06C
:10034000DBFF060EDB5005E0130ED3EC05F001E2F7
:100350006ADBF7EC05F002E2130E37DBBAEC05F0CE
:1003600006E0040ED3EC05F002E2050E2EDB030ED0
:10037000DBB005D0FCDA01E0D7D2080EDB6A090E4B
:10038000DB6A0E0EDBCFF6FF0F0EDBCFF7FF100E92
:10039000DBCFF8FF0800F550DF6EDF5014E0FDEC16
:1003A00005F011E20CEC06F003E1151C01E1BCD2F2
:1003B000BBDB01E3DB2A090EDB2AD9500E0FE96E05
:1003C000000ECBDBE7D7D3DA01E1B4D2ADD2C6DA87
:1003D000110EEECFDBFF120EEDCFDBFF110EDBCFE8
:1003E000E6FF120EDBCFE6FFD4EC0BF0E552E55250
:1003F000130EF3CFDBFF140EF4CFDBFF060EDB5042
:1004000004E0130ED0DB01E20EDBF7EC05F002E2B4
:10041000130EDBDAAFDB05E0040EC5DB02E2050EEE
:10042000D4DA030EDBB005D0A2DA01E07DD2080EEB
:10043000DB6A090EDB6A110EDBCFE9FF120EDBCFA0
:10044000EAFFEFCFDFFFDF5014E0D7DB12E2E4DB9F
:1004500003E1151C01E168D267DB01E3DB2A090E29
:10046000DB2A110EDB2ADBCFE9FF120EE8E3DB2AE1
:10047000E6D77DDA01E15ED257D2030EDB8E070E9E
:10048000DB0410E195DB040E5ADB0A0EEECFDBFF36
:100490000B0EEECFDBFF0C0EEECFDBFF0D0EEECF23
:1004A000DBFF6CD0070EDB5003082CE1030EDBAE44
:1004B0000DD0B2DA020E76DAEFCF14F0156A166AB2
:1004C000176A14AE39D01568166835D0F70EDBCF31
:1004D00015F0F80EDBCF16F0020E155E000E165A60
:1004E000F70E15C0DBFFF80E16C0DBFF15C0E9FFE5
:1004F00016C0EAFFEFCF14F00A0E14C0DBFF0B0E9C
:10050000DB6A38D0070EDB50020809E1030EDBAED0
:1005100004D059DB16AE10D00ED055DB0DD0030E33
:10052000DBAE12D079DA020E3DDAF9DA166A176A12
:1005300015AE02D016681768E2DA0C0E16C0DBFFA3
:100540000D0E17C0DBFF1AD0F70EDBCF16F0F80E3A
:10055000DBCF17F0020E165E000E175AF70E16C00C
:10056000DBFFF80E17C0DBFF16C0E9FF17C0EAFF7C
:10057000D6DAC5DA0C0EDB6A0D0EDB6A060EDB502E
:1005800005E1010EF36E050EF3CFDBFF150EDB6AFE
:10059000160EDB6AD950370F146E000EDA20156E76
:1005A000390E14C0DBFF3A0E15C0DBFF380EDB6AD4
:1005B000080EDB6A0A0EAEDADF50780A12E0200A73
:1005C00010E0280A0CE0200A0AE03F0A06E00D0AC3
:1005D00002E0200A08E1020E05D0080E03D0080E42
:1005E000DF26100E97DA030EDBBE02D0DB92DB941F
:1005F000DB50800B24E08ADAD890030EEB50000A1F
:1006000008E6000EEE5C000EEE58000EEE58000EEE
:10061000EE5815E213DA0B680C680D680E689CEC56
:100620000BF00A0E02C0DBFF0B0E03C0DBFF0C0E4B
:1006300004C0DBFF0D0E05C0DBFF2D0E08D0030E3E
:10064000DBA202D02B0E03D0DBA408D0200EF36E69
:10065000170EF3CFDBFF150EDB2A02D0170EDB6A75
:10066000050EDB5003E1B7D901E189D0280E146EE5
:100670001D0E156E000E166E070EDBCF17F0186AF2
:10068000196A1A6A17C00BF018C00CF019C00DF0E7
:100690001AC00EF0D3D9EDEC0CF014500224F36E16
:1006A00015500320F46E16500420F86EF4CFF7FFB7
:1006B000F3CFF6FF0800090EF5CFDBFF580EDF5C25
:1006C0000FE1610EF36E090E7BD90AE3200E146E62
:1006D000090EDBCFE7FF1450E75E090EE7CFDBFF23
:1006E000070EDBCF14F0156A166A176A0FDA14C00A
:1006F0000BF015C00CF016C00DF017C00EF0EECFC9
:1007000006F0EECF07F0EECF08F0EFCF09F0EDECFA
:100710000CF009C0EDFF08C0EDFF07C0EDFF06C0FB
:10072000EFFF390EDBCFE9FFDB063A0EDBCFEAFF46
:1007300001E2DB06090EDBCFEFFF150EDB2A4BD9FA
:1007400095E1030EDBA61DD06F0EDF5C06E1C1D97B
:1007500018E3150EDB285BDA14D0780EDF5C09E0B5
:10076000580EDF5C06E0620EDF5C03E0420EDF5CE9
:1007700008E1020EF36E160EF3CFDBFF02D0150E6A
:10078000DB6A030EDB50100B0EE0040EDBCF14F01F
:10079000050EDB50D880145406E2060EDB5003E150
:1007A000040EDB5034DA95D90AE2050EDBCFE7FF01
:1007B000150EDB50E75E050EE7CFDBFF02D0050E1E
:1007C000DB6A040EDBCF14F0160E45D9D880145422
:1007D00014E2160EDBCFE6FF150EDBCFE6FF040EAC
:1007E000DBCFE6FF050EDB50E552E75CE552D88033
:1007F000E754E552D880E7545FD9030EDB50010B74
:100800000BE1080EDB5008E0B2D801E08DD0080EF5
:10081000DB50BED8080EDB6A170EDB5007E088D924
:10082000170EF1D903E1151C01E17ED0160EDB5045
:1008300016E07ED9300EE66E9FD802E1151C74E0FA
:1008400077D9DFCFE6FF5AEC0BF0E552E552E552DF
:10085000F4CF15F00001F31C02E1151C65E0050E54
:10086000DBCF14F0160EDB50D880145409E2050ECD
:10087000DBCFE7FF160EDB50E75E050EE7CFDBFFB1
:10088000300EE66E050ECBD94FE1390EDB2ADBCFF9
:10089000E9FF3A0E01E3DB2ADBCFEAFF090EEFCFD7
:1008A000DBFFDB500EE044D9090EADD902E1151C87
:1008B0003BE0390EDB2ADBCFE9FF3A0EEDE3DB2A22
:1008C000EBD755D831E1160EDBCFE6FF080EC3D8C3
:1008D000E552E7245DD82ED0070EDB50030A1CE05A
:1008E000010A14E0030A07E07BD9DBCFEEFF020E1A
:1008F000DBCFEDFF1FD0F5D8196A17AE02D018680C
:1009000019682CD8BCD819C0EEFF14D0EAD817BE8D
:10091000186824D8B4D80ED063D9DBCFEFFF0AD043
:100920007BD905E1151C03E1F368F46810D0FCD80D
:1009300001E3DB2A79D939EF00F0010EDBCF14F0A7
:10094000020EDBCF15F014C0F3FF15C0F4FF3B0E11
:10095000E15C02E2E16AE552E16ECBD029D9020EF8
:100960009FEF05F061D90800F550DF6E1200200EF0
:10097000E66E080E0FEF06F05AEC0BF0E552E5526A
:10098000E552F3CF14F0F4CF15F00001F31C120080
:10099000146E156AD950010F4DD91450EE2615501A
:1009A000ED221200185E000E195AF70E18C0DBFF78
:1009B000F80E19C0DBFF18C0E9FF19C0EAFF1200EA
:1009C000DBCFF4FFF350F45C1200DB50E76E040E53
:1009D000E7CFDBFF12000A0EDBCF14F00B0EDBCFEC
:1009E00015F00C0EDBCF16F00D0EDBCF17F0145008
:1009F0001510161017101200130EEECFDBFF140E99
:100A0000EDCFDBFF130EDBCF14F0140EDBCF15F0B0
:100A10000001800E15141200F70EDBCF18F0F80E4F
:100A2000DBCF19F01200050EDB50E66ED950130F24
:100A300001D9E552E750EE6EED6A12000A0EDBCFE7
:100A400006F00B0EDBCF07F00C0EDBCF08F00D0E1F
:100A5000DBCF09F01200DBCFE6FF150EDBCFE6FFA0
:100A6000050EDB50E552E724E552E7241200DB5087
:100A7000CED8010EF36E060EF3CFDBFF1200EE5060
:100A8000EFCFEAFFE96E16C0EEFF17C0EEFF18C009
:100A9000EEFF1200D9CFE6FFDACFE6FFE1CFD9FFB4
:100AA000E2CFDAFF1200DFCFE6FFE66A46EC0EF097
:100AB000E552E552F3501200E76E080EE7CFDBFF78
:100AC0001200EECF14F0EECF15F0EFCF16F0176A4C
:100AD0001200050EDBCF14F0150EDB50D880145435
:100AE0001200010EDBCF16F0020EDBCF17F0186AF2
:100AF0001200E552E5CFDAFFE7CFD9FF12000A0E68
:100B000014C0DBFF0B0E15C0DBFF1200D9500A0F1B
:100B10001AEF06F0F36E070EF3CFDBFF1200EECFF5
:100B200014F0EFCF15F01200010EDB2A020E1200B6
:100B3000FC0EDBCFE6FFFD0EDBCFE6FF1200145EFE
:100B4000000E155AF70E14C0DBFFF80E15C0DBFFC0
:100B500014C0E9FF15C0EAFF1200DA20EA6EEF2A9E
:100B6000EECFF6FF000EEF22EECFF7FFEF22EECF33
:100B7000F8FF1200040EDBCFE6FF130EDB50E55248
:100B8000E75C9ADFDB5004DF060EDB501200090E33
:100B9000DB500A0DF350DF24D00FE76E090EE7CFCC
:100BA000DBFFB2EF04F0DB50F36E050EE0EF04F074
:100BB000F70EDBCF14F0F80EDBCF15F01200DFCF0D
:100BC000E6FFBCEF04F028DF030EECDE61EF05F07A
:100BD0000EEC00F0E552E552E552E5520009120034
:100BE000BDDEEE50EFCFEAFFE96E010E1200130EEC
:100BF000DB50F36E040EE0EF04F0040EDB50F36EF6
:100C0000090EE0EF04F0DBCFE6FFBCEF04F0E76E87
:100C1000050EE7CFDBFF12008BDFDFEF05F0DBCF48
:100C2000E6FF86DFE8EF05F0D950F90FE96EFF0E19
:0E0C3000ADEF05F0E96E000EDA20EA6E12005C
:020C3E00019E15
:100C400008D0019E09AE05D0086C091EE86A092289
:100C5000018E09C003F008C002F0136A126A8E0EFA
:100C6000046E056ADDEF07F0016A19EC08F031EC5B
:100C700008F001B6C1EF07F001A205D001BAC1EF3B
:100C800007F0C8EF07F001BAD4EF07F001A005D0D4
:100C900001B8C1EF07F0D4EF07F001B8C8EF07F0D3
:100CA000056A7F0E0A24046EE86A05220F50045E6E
:100CB000E86A055A1A0E106E0A6A126A136A026A04
:100CC000036A0C50075E0D50085A0E50095A000E68
:100CD0000A5A09E70C5007260D5008220E50092227
:100CE000000E0A2201D0128AD8900736083609363B
:100CF0000A36D8901236133602360336102EE1D754
:100D0000095008100710D8A4128ADDEF07F0016A15
:100D100019EC08F031EC08F001B6C1EF07F001A2C0
:100D200005D001B8C1EF07F0C8EF07F001AA05D060
:100D300001B0C1EF07F0C8EF07F001B002D001A881
:100D400002D0D4EF07F0056A0F500A24046EE86A57
:100D500005227E0E045EE86A055A126A136A026A68
:100D6000036A0E500902F4CF03F0F3CF02F00D50E6
:100D70000902F3501326F4500222000E03220E50F3
:100D80000802F3501326F4500222000E03220C50E6
:100D90000902F3501226F4501322000E02220322FD
:100DA0000D500802F3501226F4501322000E0222B6
:100DB00003220E500702F3501226F4501322000EA5
:100DC000022203220C500802F4501226000E1322B5
:100DD000022203220D500702F4501226000E1322A5
:100DE00002220322DDEF07F0006A0EAEFDEF06F0EF
:100DF0000D6C0E1EE86A0E22001E09AE05EF07F00C
:100E0000086C091EE86A0922001E30EC0EF009BECB
:100E100015EF07F000AE000C086C091EE86A092205
:100E2000046C051EE86A0522000C00BE0CEF07F0FA
:100E30000188FF0C09C013F008C012F007C011F0C0
:100E400007500C02F4CF05F0F3CF04F008500D0268
:100E5000F4CF07F0F3CF06F00C02F3500526F45060
:100E60000622E86A072211500D02F3500526F450BD
:100E70000622E86A072209500C02F3500626F450B5
:100E8000072209500D02086AE86A0822F350072673
:100E9000F450082211500E02F3500626F450072297
:100EA000096AE86A0822092212500E02F350072646
:100EB000F4500822E86A092213500E02F350082663
:100EC000F4500922000C6CEC07F001B6000C01B0E4
:100ED000000C01B4000C010C016A19EC08F031ECB3
:100EE00008F001B6120001AE08D001A004D001A89C
:100EF00002D001801200019012000F500A5C0BE139
:100F00000E50095C08E10D50085C05E10C50075CCF
:100F100002E101801200D8A002D0018E10D00A5048
:100F20000FC00AF00F6E09500EC009F00E6E085087
:100F30000DC008F00D6E07500CC007F00C6E0F507E
:100F40000A5C10E0FF0F09E0019001B403D001AE8C
:100F50000184120001AE019412000F2AD8900E32C3
:100F60000D320C320C50075E0D50085A0E50095AC3
:100F700009BEEAD7D8900736083609360A2EF8D7C0
:100F8000C8D77F0E0A6EFF0E096E086E076E12003C
:100F90007F0E01BEFF0E0A6E02D07F0E0A6E800E1B
:100FA000096E086A076AF3D701AE04D0800E0A6E94
:100FB000096AF7D70A6A096AF4D7035002101310B6
:100FC0001210F8E005BEF0D703BE0CD00450051097
:100FD000EBE0D89012361336023603360406D8A05A
:100FE0000506F2D70550D4E10428D2E012AE11D0A4
:100FF0007F0E121402E113A00CD0132AE86A022219
:10100000032207E3D880033202321332042A042871
:10101000BFE00450C9E013C007F002C008F0033479
:10102000096E04300A6E09320A9E01BE0A8EC7EFAD
:1010300007F009360A3602E30184017E06E10180E9
:101040000A6A096A086A076A12000A2803E0D88057
:1010500009321200D890093202E1018212000186A1
:1010600012000E360F3602E3018C017E06E1018884
:101070000F6A0E6A0D6A0C6A12000F2803E0D8800E
:101080000E321200D8900E32EAE1018A120009C035
:1010900013F008C012F008500D02F4CF07F0F3CFA0
:1010A00006F009500E02F4CF09F0F3CF08F00D025C
:1010B000F3500726F4500822E86A092212500E0263
:1010C000F3500726F4500822E86A09220EAE6DEFAD
:1010D00008F01250085E1350095A13AE000C0D5060
:0810E000085E0E50095A000CD5
:0810E800000000000000000000
:1010F00000000000000000000000000000000000F0
:101100000000000000D01200050EE66E58EC0EF054
:10111000E55212000F0EE66E58EC0EF0E55212008A
:10112000836A956A280EE66E4EEC0AF0E552B6EC3C
:101130000DF00009FCE1E66A07EC0CF0E552060E42
:10114000E66EA2EC0CF0E552B6EC0DF00009FCE105
:101150000F0EE66EA2EC0CF0E552B6EC0DF00009B5
:10116000FCE11200850EE66E78EC0DF0E552850E7E
:10117000E66EEBEC0DF0E5521200D9CFE6FFE1CFC1
:10118000D9FF040EE126DE6ADE6ADE6ADD6ADD5220
:10119000DD520001845185110BE100019851991134
:1011A00010E111EC0DF0F3CF80F0F4CF81F00FD00F
:1011B000010E84190CE185510AE100019851991141
:1011C00006E111EC0DF0F3CF82F0F4CF83F00001D3
:1011D000842B000E8523853504E284510108000E1E
:1011E000855508E30001010E981901E0B7D0995127
:1011F00001E0B4D0010E0001986F996B8AC017F01E
:101200008BC018F0196A18BE19680C680D680E6A50
:1012100017C007F018C008F019C009F01AEC07F061
:1012200004C017F005C018F006C019F00001805185
:10123000825D1A6E835181551B6E1C6A1BBE1C6831
:1012400017501A24146E18501B20156E19501C20AC
:10125000166E14C086F015C087F0902B000E9123F7
:1012600082C08CF083C08DF082C080F083C081F09A
:10127000E80E146E030E156E86C008F087C009F0E4
:1012800014C00DF00E6EF4EC06F021EC06F007C071
:10129000DEFF08C0DEFF09C0DEFF0AC0DDFFDD5251
:1012A000DD52D9CFE9FFDACFEAFFEECF14F0EECF6F
:1012B00015F0EECF16F0EFCF17F00C6A0D6A480E5E
:1012C0000E6E420E0F6E14C007F015C008F016C067
:1012D00009F017C00AF063EC07F0010A05E100010C
:1012E000922B000E932383760001846B856B0A0E8C
:1012F000901934E1915132E192C008F093C009F0A5
:1013000021EC06F007C018F008C019F009C01AF067
:101310000AC01BF00C6A0D6A200E0E6E410E0F6E95
:1013200034EC06F007C014F008C015F009C016F040
:101330000AC017F00C6A0D6AC80E0E6E420E0F6ED0
:1013400087EC06F007C094F008C095F009C096F04D
:101350000AC097F0010E00018E6F8F6B94C0E6FFFC
:1013600095C0E6FF96C0E6FF97C0E6FF390E146E03
:101370001D0E156E166A14C0E6FFE66E16C0E6FF77
:101380009A0EE66E000EE66EB5EC0AF0176E090EC8
:10139000E15E1750B6EC0DF00009FCE1E66A07ECDF
:1013A0000CF0E5529A0EE66E000EE66EC8EC0CF0FC
:1013B000E552E5520A0EE66E58EC0EF0E552040EC8
:1013C000E15C02E2E16AE552E16EE552E7CFD9FF66
:1013D0001200DACFE4FFE2CFDAFFE9CFE4FFEACF91
:1013E000E4FFF6CFE4FFF7CFE4FFF5CFE4FFF3CF60
:1013F000E4FFF4CFE4FFFACFE4FF00EE00F0140EB8
:10140000E80403E3EECFE4FFFBD700EE14F0090E8F
:10141000E80403E3EECFE4FFFBD7E6529EA005D03D
:101420009E9000018A2B000E8B239EA406D09E94D2
:10143000A4DEA7EC0EF0A1EC0EF0E55200EE1CF0DD
:10144000090EE80403E3E5CFEDFFFBD700EE13F050
:10145000140EE80403E3E5CFEDFFFBD7E5CFFAFF79
:10146000E5CFF4FFE5CFF3FFE5CFF5FFE5CFF7FFDD
:10147000E5CFF6FFE5CFEAFFE5CFE9FFE5CFDAFFFD
:1014800011004EDED08E9F849E949F809D809E9002
:0C149000F28E9596839E948465DEFFD753
:04149C00D9CFE6FFBF
:1014A000E1CFD9FF0F0E83169516959495929590DE
:1014B0008C948C928C908AEC08F0300EE66EA2EC44
:1014C0000CF0E552050EE66E03EC0EF0E552300E20
:1014D000E66EA2EC0CF0E552010EE66E03EC0EF0A7
:1014E000E552320EE66EA2EC0CF0E552B6EC0DF0D1
:1014F0000009FCE1B6EC0DF00009FCE1FE0EDBCFCB
:10150000E6FFA2EC0CF0E552B6EC0DF00009FCE1B0
:10151000080EE66EA2EC0CF0E552B6EC0DF00009F8
:10152000FCE10F0EE66EA2EC0CF0E552B6EC0DF00D
:101530000009FCE1010EE66EA2EC0CF0E552B6ECFF
:101540000DF00009FCE1040EE66EA2EC0CF0E55291
:10155000B6EC0DF00009FCE1800EE66E07EC0CF035
:0A156000E552E552E7CFD9FF120073
:06156A00D9CFE6FFDACF45
:10157000E6FFE1CFD9FFE2CFDAFFE652E652E652CC
:10158000E652D950F90F146EFF0EDA20156E020ED6
:1015900014C0DBFF030E15C0DBFF020EDBCFE6FF3E
:1015A000030EDBCFE6FFF90EDBCFE6FFFA0EDBCF53
:1015B000E6FFFB0EDBCFE6FFD950FC0FE66EFF0E19
:1015C000DA20E66E24EC00F0146E070EE15C02E215
:1015D000E16AE552E16E1450F3CFDEFFF4CFDDFF98
:1015E000FC0EDBCFE9FFFD0EDBCFEAFFEF6ADECFBB
:1015F00014F0DDCF15F014C0F3FF15C0F4FF040E96
:10160000E15C02E2E16AE552E16EE552E5CFDAFF24
:06161000E7CFD9FF120034
:0A1616000E0EF66E000EF76E000EC9
:10162000F86E00010900F550B36F0900F550B46F72
:1016300003E1B36701D03DD00900F550AE6F09005A
:10164000F550AF6F0900F550B06F09000900F55073
:10165000E96E0900F550EA6E090009000900F5502D
:10166000B16F0900F550B26F09000900F6CFB5F06F
:10167000F7CFB6F0F8CFB7F0AEC0F6FFAFC0F7FFC8
:10168000B0C0F8FF0001B15302E1B25307E0090016
:10169000F550EE6EB107F8E2B207F9D7B5C0F6FF24
:1016A000B6C0F7FFB7C0F8FF0001B307000EB45B88
:0416B000BFD712008E
:0C16B400D9CFE6FFDACFE6FFE1CFD9FF87
:1016C000E2CFDAFFFB0EDBCF14F0FC0EDBCF15F020
:1016D0000001800E15141AE1FB0EDBCFE9FFFC0EB2
:1016E000DBCFEAFFEECFF3FFEDCFF4FFEE2A000EE3
:1016F000EF22F3CFE9FFF4CFEAFFFD0EDBCFEFFFE0
:10170000EF50156AF36E15C0F4FF10D0FB0EDB50DE
:10171000FE0806E1FD0EDBCFE6FF86EC0EF005D0FD
:10172000FD0EDBCFE6FF03EC00F0E552E552E5CF1E
:08173000DAFFE7CFD9FF120038
:0817380006500B02F3CF02F092
:10174000F4CF03F00C02F3500326000EF420046ED5
:1017500006500D02F3500426000EF420056E0650CC
:101760000E02F350052607500B02F3500326F450E7
:101770000422000E052207500C02F3500426F450F8
:10178000052207500D02F350052608500B02F350B6
:101790000426F450052208500C02F3500526095087
:0817A0000B02F35005261200B4
:0817A800FE0EE3CFE9FFFF0E86
:1017B000E3CFEAFFF36AF46AEE5203E0F34AF42A55
:1017C000FBD71200FF0EE3CFF8FFE552FF0EE3CF89
:1017D000F7FFE552FF0EE3CFF6FFE552E66AE66A51
:1017E000E66A0900F55209E0FD0EE32A05E1FE0E66
:1017F000E32A02E1FF0EE32AF4D7FD0EE3CF07F060
:0E180000FE0EE3CF08F0FF0EE3CF09F012005A
:02180E00D9CF30
:10181000E6FFE1CFD9FF0F0E95168316FE0EDB50C3
:101820008009F00B83128C948C9274EC08F08C80FD
:1018300074EC08F08C900F0E8316FE0EDB38F00B64
:10184000F00B831274EC08F08C8074EC08F08C9030
:0C185000F00E9512E552E7CFD9FF120010
:04185C00D9CFE6FFFB
:10186000E1CFD9FF0F0E95168316FE0EDB5040090F
:10187000F00B83128C948C9274EC08F08C8074ECD6
:1018800008F08C900F0E8316FE0EDB38F00BF00B79
:10189000831274EC08F08C8074EC08F08C90F00EDD
:0A18A0009512E552E7CFD9FF1200C0
:0618AA00D9CFE6FFE1CFFB
:1018B000D9FFFD0EDBCFF6FFFE0EDBCFF7FF0800F2
:1018C000F55016E0B6EC0DF00009FCE1FD0EDBCFA3
:1018D000F6FFFE0EDBCFF7FF0800F550E66E7CEC5E
:1018E0000CF0E552FD0EDB2AFE0EE3E3DB2AE1D726
:0818F000E552E7CFD9FF120019
:0818F800D9CFE6FFE1CFD9FFD3
:101900000F0E95168316FE0EDB50F00B83128C82A1
:101910008C9474EC08F08C8074EC08F08C900F0EB2
:101920008316FE0EDB38F00BF00B831274EC08F01C
:101930008C8074EC08F08C90F00E9512E552E7CF95
:04194000D9FF1200B9
:0C194400D9CFE6FFE1CFD9FF0F0E9516BA
:101950008316FE0EDB50F00B83128C948C9274EC89
:1019600008F08C8074EC08F08C900F0E8316FE0E3D
:10197000DB38F00BF00B831274EC08F08C8074EC05
:1019800008F08C90F00E9512E552E7CFD9FF1200C7
:10199000D9CFE6FFE1CFD9FFFD0EDBCFE9FFFE0E89
:1019A000DBCFEAFFEF5015E0B6EC0DF00009FCE1EB
:1019B000FD0EDBCFE9FFFE0EDBCFEAFFEF50E66E58
:1019C0007CEC0CF0E552FD0EDB2AFE0EE5E3DB2A93
:0A19D000E3D7E552E7CFD9FF12007C
:0619DA00056A046A036ABD
:1019E000026A200EE76ED8900636073608360936AA
:1019F00002360336043605360B50025C0C50035891
:101A00000D5004580E50055809E30B50025E0C505F
:101A1000035A0D50045A0E50055A062AE72EE4D7F1
:021A20001200B2
:0E1A2200D9CFE6FFDACFE6FFE1CFD9FFE2CF62
:101A3000DAFFE652E6520001B8919EB4B881BE507A
:101A4000DF6E010EBFCFDBFFDECF14F0DDCF15F070
:101A500014C0F3FF15C0F4FFE552E552E552E5CF9F
:081A6000DAFFE7CFD9FF120005
:081A6800D9CFE6FFE1CFD9FF61
:101A7000E6528C848C8274EC08F08C8074EC08F054
:101A8000F00E8314DF6E8C9074EC08F08C8074EC94
:101A900008F083380F0B0F0BDF128C908C928C9414
:0C1AA000DF50E552E552E7CFD9FF1200FD
:041AAC00D9CFE6FFA9
:101AB000E1CFD9FFE6528C848C9274EC08F08C80D4
:101AC00074EC08F0F00E8314DF6E8C9074EC08F068
:101AD0008C8074EC08F083380F0B0F0BDF128C90A6
:101AE0008C947F0EDF14E552E552E7CFD9FF120048
:101AF000D9CFE6FFDACFE6FFE1CFD9FFE2CFDAFFB9
:101B0000FD0EDB507E0BCD6EFD0EDBAC02D0CD8E1C
:101B100001D0CD9ECF6ACE6A9E90DBAE02D09D8072
:101B200001D09D90CD80E552E5CFDAFFE7CFD9FF18
:021B30001200A1
:0E1B3200D9CFE6FFE1CFD9FF020EE126D65053
:101B4000DF6E010ED7CFDBFFDECF14F0DDCF15F057
:101B500014C0F3FF15C0F4FF020EE15C02E2E16A7B
:0C1B6000E552E16EE552E7CFD9FF12001C
:041B6C008C848C9247
:101B700074EC08F08C8074EC08F083AE09D08C9083
:101B800074EC08F08C8074EC08F08C908C94010C50
:101B90008C9074EC08F08C8074EC08F08C908C9431
:021BA000000C37
:0E1BA200D9CFE6FFE1CFD9FF020EE126FD0EFE
:101BB000DBCFDEFFDBCFDDFF010EDB50D76EDF506A
:101BC000D66E020EE15C02E2E16AE552E16EE55298
:061BD000E7CFD9FF12006F
:0A1BD600D9CFE6FFDACFE6FFE1CF3A
:101BE000D9FFE2CFDAFFFD0EDB500F0BBD6EFD0E0D
:101BF000DBAE02D09E949D849484E552E5CFDAFF5B
:061C0000E7CFD9FF12003E
:0A1C0600FF0EE3501E6EEF0E01D03A
:101C1000F30EE76EE72E0AEF0EF00C0E1D6EE76A6C
:101C2000E72E10EF0EF01D2E0FEF0EF01E2E08EF18
:041C30000EF01200A0
:0C1C3400D9CFE6FFE1CFD9FFFE0EDB5058
:101C40007F0BD56ED76AD66AF294FE0EDBAE02D059
:101C5000F28A01D0F29AD58EE552E7CFD9FF120071
:101C6000056A046A100EE76ED89008360936043605
:101C700005360D50045C0E50055805E30D50045E0A
:0C1C80000E50055A082AE72EF0D712007B
:041C8C00F36AF46A99
:101C9000FF0EE124E96EFF0EE220EA6EED6607D04A
:101CA0002F0EEF6404D03A0EEF6001D0F32A120039
:101CB000FF0EE3501E6E480E01D04C0EE76EE72E6D
:101CC000FED7E76AE72EFED71E2EF7D700001200D8
:101CD000000EF36E00EE00F0060E01D81200EA606E
:101CE00002D0EE6AFCD7F350E9601200EE6AFCD72E
:101CF00015EE00F025EE00F0F86A019C0BEC0BF0FD
:0C1D0000AAEC0EF041EC0AF0FBD7120038
:041D0C00FF0EE35093
:101D1000ACBA04D0AF6AAB8EAC8A949CACA2FED7AE
:081D2000AD6EF36EF46A1200CF
:081D2800303132333435363717
:091D3000383961626364656600E4
:071D39004852563A202564D0
:011D400000A2
:061D4200CD909D901200FF
:061D4800D59EF29A120084
:021D4E009D9462
:041D5000BD6A120056
:021D540012007B
:0A1D56000000000000000000000083
:0E1D6000000000000000000000000000000075
:020000040030CA
:0100010022DC
:010003000EEE
:010006008178
:00000001FF
