:020000040000FA
:060000000DEF02F01200FA
:020006000000F8
:080008000A0EE66E1BEC02F08B
:10001000E5521200050EE66EEDEC01F0E55212001D
:100020000F0EE66EEDEC01F0E5521200A3EC01F0CC
:1000300000018A6B8B6B0001080E8A5D000E8B59E4
:1000400019E28AC0E6FF8BC0E6FFB3EC01F0E5528F
:10005000E552E66E8C0E00018A25E96E000E000165
:100060008B21EA6EE552E750EF6E00018A2B000EFD
:100070008B23E1D7956A280EE66E5DEC00F0E55221
:100080000A0EE66EC0EC01F0E552D7EC01F0000973
:1000900001E0FBD7E66AFFEC00F0E552060EE66EE3
:1000A00053EC01F0E5528C0EE66E000EE66E7CEC31
:0A00B00001F0E552E55203001200D2
:0600BA00D9CFE6FFDACF0A
:1000C000E6FFE1CFD9FFE2CFDAFFF00E81169316FB
:1000D000939C939A93988A9C8A9A8A9810EC00F041
:1000E000300E35D8050EE66EC0EC01F0E552300E4C
:1000F0002ED8010EE66EC0EC01F0E552320E27D884
:100100002BD8FEE129D8FEE1FD0EDBCFE6FF53EC54
:1001100001F0E55221D8FEE1080E19D81DD8FEE104
:100120000F0E15D819D8FEE1010E11D815D8FEE131
:10013000040E0DD811D8FEE1800EE66EFFEC00F043
:10014000E552E552E5CFDAFFE7CFD9FF1200E66EC0
:1001500053EC01F0E5521200D7EC01F00009120057
:10016000060EF66E000EF76E000EF86E0001090026
:10017000F550856F0900F550866F03E1856701D062
:100180003DD00900F550806F0900F550816F0900DE
:10019000F550826F09000900F550E96E0900F5502D
:1001A000EA6E090009000900F550836F0900F55057
:1001B000846F09000900F6CF87F0F7CF88F0F8CFF9
:1001C00089F080C0F6FF81C0F7FF82C0F8FF000110
:1001D000835302E1845307E00900F550EE6E830774
:1001E000F8E28407F9D787C0F6FF88C0F7FF89C017
:0E01F000F8FF00018507000E865BBFD71200E6
:0201FE00D9CF57
:10020000E6FFDACFE6FFE1CFD9FFE2CFDAFFF00E6B
:1002100093168116FD0EDB508009E8380F0B0F0B8B
:1002200081128A9C8A9A0FD8F00E8116FD0EDB503F
:100230000F0B811208D80F0E9312E552E5CFDAFFAB
:10024000E7CFD9FF120004EC00F08A8804EC00F03C
:040250008A98120076
:0C025400D9CFE6FFDACFE6FFE1CFD9FFFB
:10026000E2CFDAFFF00E93168116FD0EDB380F0B8E
:100270000F0B81128A8A8A9C0FD8F00E8116FD0E10
:10028000DB500F0B811208D80F0E9312E552E5CF09
:10029000DAFFE7CFD9FF120004EC00F08A8804EC03
:0602A00000F08A98120034
:0A02A600D9CFE6FFDACFE6FFE1CF83
:1002B000D9FFE2CFDAFFF00E93168116FD0EDB3880
:1002C0000F0B0F0B81128A9C8A9A0FD8F00E8116A1
:1002D000FD0EDB500F0B811208D80F0E9312E55262
:1002E000E5CFDAFFE7CFD9FF120004EC00F08A88EF
:0802F00004EC00F08A981200F2
:0802F800D9CFE6FFDACFE6FFE3
:10030000E1CFD9FFE2CFDAFF16D80FE0D7EC01F04A
:100310000009FCE110D8E66E2AEC01F0E552FC0E73
:10032000DB2AFD0EF1E3DB2AEFD7E552E5CFDAFF5A
:10033000E7CFD9FF1200FC0EDBCFE9FFFD0EDBCFCC
:06034000EAFFEF5012007D
:0A0346004D0E806F610E816F700E86
:10035000826F4E0E836F610E846F6D0E856F650E1A
:10036000866F000E876F070E8A64B9EF01F0BEEF4B
:1003700001F004EE80F08A51EB501200FF0E1200E3
:10038000FF0EE350036EEF0E01D0F30EE76EE72E83
:10039000C7EF01F00C0E026EE76AE72ECDEF01F019
:0E03A000022ECCEF01F0032EC5EF01F012008B
:0203AE008A8C37
:1003B0008A9A04EC00F08A8804EC00F081A602D04E
:1003C00003D8010C01D8000C8A9804EC00F08A884C
:0A03D00004EC00F08A988A9C1200E9
:0603DA00FF0EE350036E6C
:1003E000480E01D04C0EE76EE72EFED7E76AE72EE7
:0A03F000FED7032EF7D7000012001D
:0603FA00000EF36E00EEA0
:1004000000F0060E01D81200EA6002D0EE6AFCD7B6
:0A041000F350E9601200EE6AFCD719
:06041A0015EE00F025EED6
:1004200000F0F86A019CB0EC00F026EC02F016EC4B
:0604300000F0FBD71200F2
:0A043600FF0EE350E84E1200000034
:0C04400000D000D000D0E82EFAD7120047
:02044C0012009C
:020000040030CA
:0100010022DC
:010003000EEE
:010006008178
:00000001FF
