:020000040000FA
:060000009EEF01F012006A
:0A00060001009403000080000000D8
:040010004B000000A1
:0C00140094941E0EE66EE66A13EC01F0F8
:10002000E552E552050EE66E57EC01F0E55200018F
:10003000D56BD66B190E0001D6AF02D0D89003D085
:10004000D55D000ED6593AE2800E0001D525E96E45
:10005000000E0001D621EA6EEF50E66E6CEC01F066
:10006000E552D5C0E9FFD6C0EAFFD890E936EA36B6
:10007000990EE926000EEA22EECF14F0EFCF15F02C
:10008000900E086E010E096E14C00DF015C00EF032
:10009000E6EC00F00650E66E7EEC01F0E552010E53
:1000A000E66E6CEC01F0E552190EE66E40EC01F0E4
:1000B000E5520001D52B000ED623BCD7B8D70300DC
:0200C00012002C
:0E00C200060EF66E000EF76E000EF86E0001D0
:1000D0000900F550D06F0900F550D16F03E1D067EA
:1000E00001D03DD00900F550CB6F0900F550CC6F21
:1000F0000900F550CD6F09000900F550E96E0900BF
:10010000F550EA6E090009000900F550CE6F0900AC
:10011000F550CF6F09000900F6CFD2F0F7CFD3F03A
:10012000F8CFD4F0CBC0F6FFCCC0F7FFCDC0F8FFBE
:100130000001CE5302E1CF5307E00900F550EE6E07
:10014000CE07F8E2CF07F9D7D2C0F6FFD3C0F7FF4A
:10015000D4C0F8FF0001D007000ED15BBFD712005A
:10016000D9CFE6FFE1CFD9FF030EE126F8CF01F0AA
:10017000F6CF02F0FE0EDB80DB82DB84DB86DB88E1
:10018000DB8AFD0EDB84DB86DB88DB8ADB8CDB8EA7
:10019000FE0EDBCFE6FFC00EBD10E552E714BD6ECC
:1001A000FD0EDBCFE6FF0F0EBD10E552E714BD6E6E
:1001B00001C0F8FF02C0F6FF030EE15C02E2E16A53
:0C01C000E552E16EE552E7CFD9FF1200D6
:0401CC0009C013F063
:1001D00008C012F008500D02F4CF07F0F3CF06F07C
:1001E00009500E02F4CF09F0F3CF08F00D02F350DE
:1001F0000726F4500822E86A092212500E02F35032
:100200000726F4500822E86A09220EAE0CEF01F02E
:100210001250085E1350095A13AE000C0D50085EC0
:060220000E50095A000C0B
:0A022600D9CFE6FFE1CFD9FF020EA9
:10023000E126FD0EDBCF14F0FE0EDBCF15F0060E2F
:10024000D89014361536E804FBE114C0DEFF15C063
:10025000DDFF010EDB50BE6EDF50E840E8403F0B93
:10026000300B146ECF0EBD141410BD6E020EE15C87
:1002700002E2E16AE552E16EE552E7CFD9FF1200F2
:10028000FF0EE350176EEF0E01D0F30EE76EE72E70
:1002900047EF01F00C0E166EE76AE72E4DEF01F006
:0E02A000162E4CEF01F0172E45EF01F0120064
:0202AE00D9CFA6
:1002B000E6FFE1CFD9FFFE0EDB50FB0BCA6ECC6A26
:1002C0009E92FE0EDBAE02D09D8201D09D92CA842A
:0802D000E552E7CFD9FF12004F
:0802D800D9CFE6FFE1CFD9FF09
:1002E0000C0EBD129494CA94FE0EDB50CB6ECA84E1
:0C02F000E552E7CFD9FF120094941200F1
:0402FC00FF0EE350BE
:10030000176E480E01D04C0EE76EE72EFED7E76A57
:0C031000E72EFED7172EF7D700001200D2
:04031C00000EF36E6E
:1003200000EE00F0060E01D81200EA6002D0EE6A7C
:0C033000FCD7F350E9601200EE6AFCD725
:04033C0015EE00F0CA
:1003400025EE00F0F86A019C61EC00F0C9EC01F0C8
:080350000AEC00F0FBD71200DB
:08035800D9CFE6FFE1CFD9FF88
:10036000E652CC50DF6EDF50E552E552E7CFD9FFC1
:02037000120079
:0E037200D9CFE6FFE1CFD9FFFE0EDB50CC6EF7
:08038000E552E7CFD9FF12009E
:06038800CA949D921200D0
:02038E00BD6A46
:02039000120059
:02039200120057
:0C0394005151515151515144655A514C86
:1003A0004C4C4C4C515151515A5A515A4401000134
:1003B0000002000100010002000100010001000133
:1003C0000004000100010001000100010001000122
:0F03D00000010001000100010001000200020015
:020000040030CA
:010003000EEE
:010006008178
:00000001FF
