:020000040000FA
:060000003AEF1CF01200B3
:020006001200E6
:0600080005EF0EF01200EE
:02000E00C250DE
:08001000040B01E0010E1200D7
:060018005CEF0EF0120087
:02001E000100DF
:0C0020003239000000010000290000003F
:04002C00070EC16E8C
:1000300096949490929C94829294929692921200AA
:10004000929A9692969094961200D9CFE6FFE1CFBD
:10005000D9FF020EE126DE6ADD6ADE6ADD6ADECFE6
:1000600014F0DDCF15F0D890155004E60F0E145C97
:10007000000E15580AE2C80EE66E0AEC1CF0E552B6
:10008000DF2A010EECE3DB2AEAD75EEC1BF0000965
:10009000FCE1E66AD5EC19F0E5525EEC1BF00009D4
:1000A000FCE1010EE66E0AEC1CF0E5525EEC1BF082
:1000B0000009FCE1610EE66E2F0EE66E23EC1AF0ED
:1000C000E552E5525EEC1BF00009FCE1400EE66EE5
:1000D000D5EC19F0E5525EEC1BF00009FCE1010ED5
:1000E000E66E0AEC1CF0E5525EEC1BF00009FCE148
:1000F000610EE66E2F0EE66E23EC1AF0E552E55225
:100100005EEC1BF00009FCE1100EE66ED5EC19F078
:10011000E5525EEC1BF00009FCE1010EE66E0AEC14
:100120001CF0E5525EEC1BF00009FCE1610EE66E8E
:100130002F0EE66E23EC1AF0E552E5525EEC1BF052
:100140000009FCE1500EE66ED5EC19F0E5525EECCC
:100150001BF00009FCE1010EE66E0AEC1CF0E55212
:100160005EEC1BF00009FCE1610EE66E2F0EE66E00
:1001700023EC1AF0E552E552020EE15C02E2E16A7C
:10018000E552E16EE552E7CFD9FF12008B861200EF
:100190008B961200D9CFE6FFE1CFD9FF030EE126FF
:1001A000DF6A010EDB6A020EDB6A0001806B816B85
:1001B000EDDF898C8D94898A8D908D92DF6ADFCFF7
:1001C00014F0050EE76E1418E8AE02D0E73402D042
:1001D000E750145C07E2030EE66E63EC1CF0E55298
:1001E000DF2AEDD7899C8D84DF6ADFCF14F0080EFB
:1001F000E76E1418E8AE02D0E73402D0E750145C82
:100200002AE28250020B01E0010EE66ED950010F86
:10021000E96EDACFEAFFE552E750EE6EED6A010EC5
:10022000DBCF16F0020EDBCF17F0070ED880DF54BD
:1002300016C014F017C015F005E0D8901436153626
:10024000E804FBE1145000018013155081138B80EA
:100250008B90DF2ACAD78D808D8280C0F3FF81C04A
:10026000F4FF030EE15C02E2E16AE552E16EE55261
:10027000E7CFD9FF1200D9CFE6FFE1CFD9FF020EB9
:10028000E126DF6AFD0EDB50DF6E8994010EDB6A2A
:10029000DBCF14F0080EE76E1418E8AE02D0E73496
:1002A00002D0E750145C1AE28996010EDBCFE6FF1C
:1002B000070EE552D880E754146EDF5014C0E7FFF4
:1002C000E75204E0E8427F0BE706FCE1E8B08982F0
:1002D000E8A089928986010EDB2ADAD78984010E8B
:1002E000E66E63EC1CF0E552020EE15C02E2E16AAC
:1002F000E552E16EE552E7CFD9FF1200899A8D925F
:10030000898A8D82898A8D92898A8D821200D9CFBD
:10031000E6FFE1CFD9FF060EE126DE6ADD6A020EB6
:10032000DB6A030EDB6A040EDB6A050EDB6A100E65
:10033000176ED950FC0FE96EFF0EDA20EA6E1750E7
:100340001F0BEECF14F0EECF15F0EECF16F006E057
:10035000D890163215321432E806FAE114C0DEFFE6
:1003600015C0DDFF080E176ED950FC0FE96EFF0EA9
:10037000DA20EA6E17501F0BEECF14F0EECF15F017
:10038000EECF16F006E0D890163215321432E80699
:10039000FAE1020E14C0DBFF030E15C0DBFF070EEF
:1003A0001A6ED950FC0FE96EFF0EDA20EA6E1A5071
:1003B0001F0BEECF17F0EECF18F0EECF19F006E0DE
:1003C000D890173618361936E806FAE1070E1F0BD3
:1003D00017C014F018C015F019C016F006E0D89038
:1003E000163215321432E806FAE1040E14C0DBFFAF
:1003F000050E15C0DBFFFA0EDBCFE6FFFB0EDBCFF1
:10040000E6FF39DFE552E552DECFE6FFDDCFE6FF5E
:1004100032DFE552E552020EDBCFE6FF030EDBCF03
:10042000E6FF29DFE552E552040EDBCFE6FF050EBD
:10043000DBCFE6FF20DFE552E55260DF060EE15C30
:1004400002E2E16AE552E16EE552E7CFD9FF120020
:100450008B968D80898A8D8212008B968D80899AE9
:100460008D9212008B86898A8D828D8000008D92FC
:100470008D9000D012008B86899A8D828D8012001B
:10048000D9CFE6FFE1CFD9FF070EE126DE6ADD6AAC
:10049000030EDB6A040EDB6A050EDB6A060EDB6AFE
:1004A0008D728D70898A76DE030EF3CFDBFF040E2A
:1004B000F4CFDBFFD950FB0FE96EFF0EDA20EA6EB6
:1004C000EE50ED1002E0000E01D0010E146E156A20
:1004D00014BE1568050E14C0DBFF060E15C0DBFF49
:1004E000FD0EDBCFF6FFFE0EDBCFF7FF0800020E9E
:1004F000F5CFDBFFDB5045080FE1D950030FE96E64
:10050000DACFEAFFFF0EEE1805E1ED5003E1010E30
:10051000DE6E01D0DE6ADD6A020EDB50420826E1A3
:10052000030EDBCF16F0040EDBCF17F0070ED890CA
:1005300017321632E804FBE1050EDBCF18F0060E89
:10054000DBCF19F0070ED89019321832E804FBE11E
:1005500016501818146E17501918156E14501510DF
:1005600002E1DE6A02D0010EDE6EDD6ADECF14F03B
:10057000DDCF15F014C0F3FF15C0F4FF070EE15CEA
:1005800002E2E16AE552E16EE552E7CFD9FF1200DF
:10059000D9CFE6FFE1CFD9FF040EE126DE6ADD6A9E
:1005A000020EDB6A030EDB6A0101006B016B50DF98
:1005B000AA0EE66EE66A550EE66EE66EE66AA7DEFF
:1005C000146E050EE15E1450550EE66EE66AAA0E34
:1005D000E66E2A0EE66EE66A9ADE146E050EE15E9F
:1005E0001450900EE66EE66A550EE66EE66EE66A0A
:1005F0008EDE146E050EE15E1450C8DD000EE66E50
:10060000E66AE66AE66AE66A82DE146E050EE15E76
:100610001450C0DDF3CFDEFFF4CFDDFF5EEC1BF046
:100620000009FCE1E66AD5EC19F0E5525EEC1BF03E
:100630000009FCE16E0EE66E0AEC1CF0E5525EEC81
:100640001BF00009FCE1DECFE6FFDDCFE6FF550E33
:10065000146E2F0E156E166A14C0E6FFE66E16C0F5
:10066000E6FF840EE66E000EE66E20EC18F0176EC4
:10067000070EE15E1750840EE66E000EE66E96ECF5
:100680001AF0E552E552000EE66EE66A010EE66EDD
:10069000E66AE66A3CDE146E050EE15E14507ADD11
:1006A000020EF3CFDBFF030EF4CFDBFF5EEC1BF09B
:1006B0000009FCE1400EE66ED5EC19F0E5525EEC67
:1006C0001BF00009FCE16E0EE66E0AEC1CF0E55230
:1006D0005EEC1BF00009FCE1020EDBCFE6FF030E2F
:1006E000DBCFE6FF480E146E2F0E156E166A14C08F
:1006F000E6FFE66E16C0E6FF840EE66E000EE66EBE
:1007000020EC18F0176E070EE15E1750840EE66EAF
:10071000000EE66E96EC1AF0E552E552D9CFE9FFED
:10072000DACFEAFFBF0EEE1829E1ED5027E1D950EC
:10073000020FE96EDACFEAFFB70EEE181FE1ED50B7
:100740001DE101010069016B5EEC1BF00009FCE199
:10075000100EE66ED5EC19F0E5525EEC1BF00009C8
:10076000FCE16E0EE66E0AEC1CF0E5525EEC1BF04E
:100770000009FCE1360E146E2F0E1DD0AA0E0101E9
:10078000006F016B5EEC1BF00009FCE1100EE66EE1
:10079000D5EC19F0E5525EEC1BF00009FCE16E0EA1
:1007A000E66E0AEC1CF0E5525EEC1BF00009FCE181
:1007B000250E146E2F0E156E166A14C0E6FFE66E37
:1007C00016C0E6FF840EE66E000EE66E20EC18F012
:1007D000176E050EE15E1750840EE66E000EE66E93
:1007E00096EC1AF0E552E552D3DCAA0EE66EE66A04
:1007F000550EE66EE66EE66A8ADD146E050EE15E63
:100800001450550EE66EE66AAA0EE66E2A0EE66EE5
:10081000E66A7DDD146E050EE15E1450F00EE66EA4
:10082000E66A550EE66EE66EE66A71DD146E050E3A
:10083000E15E14505EEC1BF00009FCE1500EE66E28
:10084000D5EC19F0E5525EEC1BF00009FCE16E0EF0
:10085000E66E0AEC1CF0E5525EEC1BF00009FCE1D0
:10086000160E146E2F0E156E166A14C0E6FFE66E95
:1008700016C0E6FF840EE66E000EE66E20EC18F061
:10088000176E050EE15E1750840EE66E000EE66EE2
:1008900096EC1AF0E552E55225EC00F0640EE66E97
:1008A0000AEC1CF0E552040EE15C02E2E16AE5525A
:1008B000E16EE552E7CFD9FF1200D9CFE6FFE1CFD5
:1008C000D9FF020EE126DE6ADD6A60DC140EE66EF8
:1008D0000AEC1CF0E552D9CFE9FFDACFEAFF010EAE
:1008E000EE1801E1ED504AE0FB0EDBCFE6FFFC0E17
:1008F000DBCFE6FF140EE66E2F0EE66EC1DDE5528D
:10090000E552E552E552F3CFDEFFF4CFDDFF5EECBA
:100910001BF00009FCE1E66AD5EC19F0E5525EEC4B
:100920001BF00009FCE16E0EE66E0AEC1CF0E552CD
:100930005EEC1BF00009FCE1FD0EDBCFE6FFFE0ED6
:10094000DBCFE6FF020E146E2F0E156E166A14C072
:10095000E6FFE66E16C0E6FF840EE66E000EE66E5B
:1009600020EC18F0176E070EE15E1750840EE66E4D
:10097000000EE66E96EC1AF0E552ACD75EEC1BF07A
:100980000009FCE1E66AD5EC19F0E5525EEC1BF0DB
:100990000009FCE16E0EE66E0AEC1CF0E5525EEC1E
:1009A0001BF00009FCE1FD0EDBCFE6FFFE0EDBCF06
:1009B000E6FFF00E146E2E0E156E166A14C0E6FFDA
:1009C000E66E16C0E6FF840EE66E000EE66E20ECC4
:1009D00018F0176E070EE15E1750840EE66E000EDB
:1009E000E66E96EC1AF0E552E552020EE15C02E288
:1009F000E16AE552E16EE552E7CFD9FF1200D9CFA7
:100A0000E6FFE1CFD9FF020EE126DE6ADD6AC6EC21
:100A100000F0010EE66E63EC1CF0E552D9CFE9FF61
:100A2000DACFEAFF010EEE1801E1ED5045E0FD0ED0
:100A3000DBCFE6FFFE0EDBCFE6FFED0EE66E2E0E01
:100A4000E66E1EDDE552E552E552E552F3CFDEFFDC
:100A5000F4CFDDFF5EEC1BF00009FCE1400EE66E1A
:100A6000D5EC19F0E5525EEC1BF00009FCE16E0ECE
:100A7000E66E0AEC1CF0E5525EEC1BF00009FCE1AE
:100A8000E20E146E2E0E156E166A14C0E6FFE66EA8
:100A900016C0E6FF840EE66E000EE66E20EC18F03F
:100AA000176E050EE15E1750840EE66E000EE66EC0
:100AB00096EC1AF0E552B1D75EEC1BF00009FCE1B0
:100AC000400EE66ED5EC19F0E5525EEC1BF0000925
:100AD000FCE16E0EE66E0AEC1CF0E5525EEC1BF0DB
:100AE0000009FCE1D70E146E2E0E156E166A14C0A6
:100AF000E6FFE66E16C0E6FF840EE66E000EE66EBA
:100B000020EC18F0176E050EE15E1750840EE66EAD
:100B1000000EE66E96EC1AF0E552E552020EE15C2C
:100B200002E2E16AE552E16EE552E7CFD9FF120039
:100B3000D9CFE6FFE1CFD9FF90DCAA0EE66EE66AD8
:100B4000550EE66EE66EE66A87EC01F0146E050E51
:100B5000E15E1450550EE66EE66AAA0EE66E2A0EA7
:100B6000E66EE66A87EC01F0146E050EE15E145045
:100B7000800EE66EE66A550EE66EE66EE66A87EC75
:100B800001F0146E050EE15E1450AA0EE66EE66AE0
:100B9000550EE66EE66EE66A87EC01F0146E050E01
:100BA000E15E1450550EE66EE66AAA0EE66E2A0E57
:100BB000E66EE66A87EC01F0146E050EE15E1450F5
:100BC000300EE66EE66AFB0EDBCF14F0FC0EDBCFD8
:100BD00015F0166A14C0E6FF15C0E6FF16C0E6FF62
:100BE00087EC01F0176E050EE15E1750FB0EDBCFB0
:100BF000E6FFFC0EDBCFE6FFFD0EDBCFE6FFFE0ED1
:100C0000DBCFE6FF5ADEE552E552E552E552E5520A
:100C1000E7CFD9FF1200D9CFE6FFE1CFD9FF01011D
:100C2000FF0E001964E1015162E1FB0EDBCFE6FF2C
:100C3000FC0EDBCFE6FFFD0EDBCFE6FFFE0EDBCFCB
:100C4000E6FF76DFE552E552E552E55228EC02F088
:100C5000AA0EE66EE66A550EE66EE66EE66A87EC6A
:100C600001F0146E050EE15E1450550EE66EE66A54
:100C7000AA0EE66E2A0EE66EE66A87EC01F0146EA6
:100C8000050EE15E1450A00EE66EE66A550EE66EA5
:100C9000E66EE66A87EC01F0146E050EE15E145014
:100CA000FB0EDBCFE6FFFC0EDBCFE6FFFD0EDBCF5E
:100CB00014F0FE0EDBCF15F0166A14C0E6FF15C067
:100CC000E6FF16C0E6FF87EC01F0176E050EE15E49
:100CD0001750FB0EDBCFE6FFFC0EDBCFE6FF8FDE0F
:100CE000E552E5523BEC02F025EC00F057D025EC44
:100CF00000F05EEC1BF00009FCE1E66AD5EC19F0AF
:100D0000E5525EEC1BF00009FCE16E0EE66E0AECAB
:100D10001CF0E5525EEC1BF00009FCE1C60EE66E2D
:100D20002E0EE66E23EC1AF0E552E5525EEC1BF057
:100D30000009FCE1400EE66ED5EC19F0E5525EECE0
:100D40001BF00009FCE16E0EE66E0AEC1CF0E552A9
:100D50005EEC1BF00009FCE1FD0EDBCFE6FFFE0EB2
:100D6000DBCFE6FFB70E146E2E0E156E166A14C09A
:100D7000E6FFE66E16C0E6FF840EE66E000EE66E37
:100D800020EC18F0176E070EE15E1750840EE66E29
:100D9000000EE66E96EC1AF0E552E552E552E7CF0A
:100DA000D9FF1200D9CFE6FFE1CFD9FF020EE1262D
:100DB000DE6ADD6A32EC02F00101FF0E001973E118
:100DC000015171E1000EE66EE66AFD0EDBCF14F014
:100DD000FE0EDBCF15F0166A14C0E6FF15C0E6FF65
:100DE00016C0E6FF87EC01F0176E050EE15E1750A6
:100DF000CAEC00F0F3CFDEFFF4CFDDFF5EEC1BF0BA
:100E00000009FCE1E66AD5EC19F0E5525EEC1BF056
:100E10000009FCE16E0EE66E0AEC1CF0E5525EEC99
:100E20001BF00009FCE1FD0EDBCFE6FFFE0EDBCF81
:100E3000E6FFAD0E146E2E0E156E166A14C0E6FF98
:100E4000E66E16C0E6FF840EE66E000EE66E20EC3F
:100E500018F0176E070EE15E1750840EE66E000E56
:100E6000E66E96EC1AF0E552E5525EEC1BF00009D6
:100E7000FCE1400EE66ED5EC19F0E5525EEC1BF09D
:100E80000009FCE16E0EE66E0AEC1CF0E5525EEC29
:100E90001BF00009FCE1DECFE6FFDDCFE6FFA50E8B
:100EA000146E2E0E3ED025EC00F05EEC1BF0000917
:100EB000FCE1E66AD5EC19F0E5525EEC1BF00009A6
:100EC000FCE16E0EE66E0AEC1CF0E5525EEC1BF0E7
:100ED0000009FCE1C60EE66E2E0EE66E23EC1AF05B
:100EE000E552E5525EEC1BF00009FCE1400EE66EB7
:100EF000D5EC19F0E5525EEC1BF00009FCE16E0E3A
:100F0000E66E0AEC1CF0E5525EEC1BF00009FCE119
:100F1000FD0EDBCFE6FFFE0EDBCFE6FF950E146E77
:100F20002E0E156E166A14C0E6FFE66E16C0E6FFBA
:100F3000840EE66E000EE66E20EC18F0176E070EBB
:100F4000E15E1750840EE66E000EE66E96EC1AF027
:100F5000E552E552020EE15C02E2E16AE552E16E21
:100F6000E552E7CFD9FF1200030EE66EE66A020EE5
:100F7000E66EE66A50DEE552E552E552E5521200B1
:100F8000D9CFE6FFE1CFD9FF020EE126DE6ADD6AA6
:100F900032EC02F00101FF0E001915E1015113E1DD
:100FA000000EE66EE66A020EE66EE66AE66A87EC18
:100FB00001F0146E050EE15E1450CAEC00F0F3CFA0
:100FC000DEFFF4CFDDFFDECF14F0DDCF15F014C06F
:100FD000F3FF15C0F4FF020EE15C02E2E16AE552A4
:100FE000E16EE552E7CFD9FF1200D9CFE6FFE1CF9E
:100FF000D9FF020EE126DE6ADD6AC2DFF3CFDEFF33
:10100000F4CFDDFFFD0EDBCFE6FFFE0EDBCFE6FF0C
:10101000DECFE6FFDDCFE6FFFEDDE552E552E5522D
:10102000E552020EE15C02E2E16AE552E16EE55250
:10103000E7CFD9FF1200D9CFE6FFE1CFD9FF140ED9
:10104000E1265EEC1BF00009FCE1500EE66ED5ECEB
:1010500019F0E5525EEC1BF00009FCE16E0EE66E45
:101060000AEC1CF0E5525EEC1BF00009FCE16E0E90
:10107000E66E0AEC1CF0E5527F0EE66E2E0EE66E72
:1010800023EC1AF0E552E552050E0101046F056BE1
:10109000010E05AF02D0D89003D0045D000E0559B3
:1010A00069E304C1E6FF05C1E6FF6D0E146E2E0E66
:1010B000156E166A14C0E6FFE66E16C0E6FFD9CFBD
:1010C000E6FFDACFE6FF20EC18F0176E070EE15EC0
:1010D00017505EEC1BF00009FCE1500EE66ED5ECFB
:1010E00019F0E5525EEC1BF00009FCE16E0EE66EB5
:1010F0000AEC1CF0E5525EEC1BF00009FCE1D9CFD4
:10110000E6FFDACFE6FF96EC1AF0E552E552C80E9C
:10111000E66E0AEC1CF0E552C80EE66E0AEC1CF016
:10112000E552C80EE66E0AEC1CF0E552C80EE66EFB
:101130000AEC1CF0E552C80EE66E0AEC1CF0E55213
:101140005EEC1BF00009FCE1500EE66ED5EC19F0E8
:10115000E5525EEC1BF00009FCE1580EE66E2E0E27
:10116000E66E23EC1AF0E552E55201010407000E89
:10117000055B8ED78A8E140EE15C02E2E16AE552CD
:10118000E16EE552E7CFD9FF120081B404D0010E21
:101190000101026F036B81A403D00101026B036B99
:1011A00012000101010E021903E1035101E143DFC5
:1011B00012009384939E8A9E1200F08EF198F0881C
:1011C0001200D9CFE6FFE1CFD9FF020EE126DE6A99
:1011D000DD6A938A8A9A939A300EE66E63EC1CF06D
:1011E000E552938A180EE66E63EC1CF0E5528150CE
:1011F000200B200A01E0010E146E156A14BE15685A
:1012000014C0DEFF15C0DDFFDF50146E020EE15C7E
:1012100002E2E16AE552E16E1450E552E7CFD9FFF0
:101220001200D9CFE6FFE1CFD9FFE652DF6ADFCF68
:1012300014F0080EE76E1418E8AE02D0E73402D0BE
:10124000E750145C22E28A9A939A010EE66E63ECF0
:101250001CF0E552FE0EDB50010BE8B0938AE8A0CB
:10126000939A050EE66E63EC1CF0E552938A020E2B
:10127000E66E63EC1CF0E552FE0EDB407F0BE76E82
:10128000FE0EE7CFDBFFDF2AD2D7E552E552E7CFEC
:10129000D9FF1200D9CFE6FFE1CFD9FF020EE12638
:1012A000DF6A010EDB6A010EDBCF14F0080EE76E79
:1012B0001418E8AE02D0E73402D0E750145C24E200
:1012C0008A9A939A00000000938A000000000000B0
:1012D000000000000000000000008150200B01E031
:1012E000010EF36E010EDB5004E0D890F336E806F1
:1012F000FCE1F350DF10DF6E050EE66E63EC1CF0D0
:10130000E552010EDB2ACFD7DF5000D0146E020E5B
:10131000E15C02E2E16AE552E16E1450E552E7CF8A
:10132000D9FF12009396120001010C6B0D6B156B27
:10133000166B0F6B106B116B126B43DFCC0EE66EEE
:1013400070DFE552440EE66E6CDFE5528A86010ED0
:101350000101176F186B183504E217510808000EC9
:1013600018550AE3640EE66E0AEC1CF0E552010122
:10137000172B000E1823EFD78A9623DFCC0EE66ECC
:1013800050DFE552BE0EE66E4CDFE55283DF000112
:10139000AD6F80DF0001AC6FAD390F0B01010A6F3B
:1013A0000B6B0001AC39F00B0101086F096BE850C1
:1013B0000A110C6F09510B110D6F0001ADA118D06E
:1013C0000C6A0D6A800E0E6E3D0E0F6E0FC107F097
:1013D00010C108F011C109F012C10AF0F2EC14F0CA
:1013E00007C00FF108C010F109C011F10AC012F1D5
:1013F0000001ADA317D00C6A0D6A0E6A3E0E0F6E87
:101400000FC107F010C108F011C109F012C10AF0B4
:10141000F2EC14F007C00FF108C010F109C011F18F
:101420000AC012F10001ADA518D00C6A0D6A800E39
:101430000E6E3E0E0F6E0FC107F010C108F011C105
:1014400009F012C10AF0F2EC14F007C00FF108C065
:1014500010F109C011F10AC012F10001ADA717D0B7
:101460000C6A0D6A0E6A3F0E0F6E0FC107F010C1B5
:1014700008F011C109F012C10AF0F2EC14F007C033
:101480000FF108C010F109C011F10AC012F10C6A85
:101490000D6A7A0E0E6E440E0F6E0FC107F010C16A
:1014A00008F011C109F012C10AF088EC15F022EC25
:1014B00016F008C015F109C016F10001AC51E84062
:1014C000E840E8401F0B3F0B0101136F146BE8501D
:1014D000141102E12B0E01D02D0E196F12000CC158
:1014E000F3FF0DC1F4FF120015C1F3FF16C1F4FFA5
:1014F000120001011951120000000000000000005C
:1015000000000000000000000000000000000000DB
:101510000000000000D01200050EE66E0AEC1CF080
:10152000E55212000F0EE66E0AEC1CF0E5521200B6
:10153000948E948C948A94881200F288F19C120004
:101540000101206B216B8250800B01E0010E201104
:10155000206FD890203721378250400B01E0010ED8
:101560002011206FD890203721378250200B01E0C6
:10157000010E2011206FD890203721378250100B98
:1015800001E0010E2011206F0E0E201901E1215102
:1015900001E19DD00F0E201901E1215101E193D00D
:1015A0000D0E201901E1215101E189D00C0E201905
:1015B00001E121516CE00A0E201901E1215163E0A3
:1015C0000B0E201901E121515AE0090E201901E109
:1015D000215151E0080E201901E1215148E0060E89
:1015E000201901E121513FE0070E201901E12151AD
:1015F00036E0050E201901E121512DE0040E2019DD
:1016000001E1215124E0020E201901E121511BE0EA
:10161000030E201901E1215112E0010E201901E110
:10162000215109E0205101E1215101E01200560E43
:10163000146E2E0E4FD0540E146E2E0E4BD0520E32
:10164000146E2E0E47D0500E146E2E0E43D04E0E3A
:10165000146E2E0E3FD04C0E146E2E0E3BD04A0E42
:10166000146E2E0E37D0480E146E2E0E33D0460E4A
:10167000146E2E0E2FD0440E146E2E0E2BD0420E52
:10168000146E2E0E27D0400E146E2E0E23D03E0E5A
:10169000146E2E0E156E166A14C0E6FFE66E16C0A6
:1016A000E6FFC20EE66E000EE66E20EC18F0176E36
:1016B000050EE15E175001011E6B1F6B12003C0E00
:1016C000146E2E0E07D03A0E146E2E0E03D0380E66
:1016D000146E2E0E156E166A14C0E6FFE66E16C066
:1016E000E6FFC20EE66E000EE66E20EC18F0176EF6
:1016F000050EE15E17501200D9CFE6FFE1CFD9FF0A
:10170000020EE126DE6ADD6A94941E0EE66EE66A3B
:10171000A8EC19F0E552E552050EE66EC0EC1BF0A0
:10172000E552DE6ADD6ADECF14F0DDCF15F0D89029
:10173000155004E6030E145C000E155818E2650EF1
:10174000E66EE7EC1BF0E552200EE66E0AEC1CF0AC
:10175000E552010EE66EE7EC1BF0E552E6680AEC96
:101760001CF0E552DF2A010EDEE3DB2ADCD78BEC2E
:101770001CF094EC1CF0020EE15C02E2E16AE5521E
:10178000E16EE552E7CFD9FF1200F294F194F28AAC
:10179000F09CF19AF086120095961200970EE66E74
:1017A000AAEC1BF0E5521200F9DFF6DFEEDF6A0E5D
:1017B000E66E670EE66E79EC1BF0E552E5528C861C
:1017C00001011C6B1D6B1C511D11FBE11200010E70
:1017D00001011C6F1D6B8C96F0968EEC1CF00101C4
:1017E000010E1C194DE11D514BE15EEC1BF000098F
:1017F000FCE1E66AD5EC19F0E5525EEC1BF000095D
:10180000FCE16E0EE66E0AEC1CF0E5525EEC1BF09D
:101810000009FCE1060E086E096A1AC10DF01BC131
:101820000EF0F5EC15F006C01AF107C01BF101012E
:10183000073406E21A516408000E1B5501E25CDF12
:101840001AC1E6FF1BC1E6FF280E146E2E0E156EA0
:10185000166A14C0E6FFE66E16C0E6FF980EE66E46
:10186000000EE66E20EC18F0176E070EE15E1750C2
:10187000980EE66E000EE66E96EC1AF0E552E55212
:1018800001011A6B1B6B120001011C511D1138E183
:101890001A2B000E1B235EEC1BF00009FCE1E66A2C
:1018A000D5EC19F0E5525EEC1BF00009FCE16E0E80
:1018B000E66E0AEC1CF0E5525EEC1BF00009FCE160
:1018C0001AC1E6FF1BC1E6FF1B0E146E2E0E156E2D
:1018D000166A14C0E6FFE66E16C0E6FF980EE66EC6
:1018E000000EE66E20EC18F0176E070EE15E175042
:1018F000980EE66E000EE66E96EC1AF0E552E55292
:101900001200D9CFE6FFE1CFD9FF290EE126E60E7E
:10191000DF6E0D0E146E2E0E156E166A14C0E6FFE5
:10192000E66E16C0E6FFD950010FE66E000EDA2013
:10193000E66E20EC18F0176E050EE15E1750FD0EF6
:10194000146E2D0E156E166A14C0E6FFE66E16C0F4
:10195000E6FFD950150FE66E000EDA20E66E20EC99
:1019600018F0176E050EE15E17505EEC1BF00009D3
:10197000FCE1E66AD5EC19F0E5525EEC1BF00009DB
:10198000FCE16E0EE66E0AEC1CF0E5525EEC1BF01C
:101990000009FCE1EF0EE66E2D0EE66E23EC1AF068
:1019A000E552E5525EEC1BF00009FCE1400EE66EEC
:1019B000D5EC19F0E5525EEC1BF00009FCE10A0ED3
:1019C000E66E0AEC1CF0E5525EEC1BF00009FCE14F
:1019D000D950010FE66E000EDA20E66E96EC1AF092
:1019E000E552E5525EEC1BF00009FCE1100EE66EDC
:1019F000D5EC19F0E5525EEC1BF00009FCE10A0E93
:101A0000E66E0AEC1CF0E5525EEC1BF00009FCE10E
:101A1000D950150FE66E000EDA20E66E96EC1AF03D
:101A2000E552E55225EC00F0290EE15C02E2E16AA4
:101A3000E552E16EE552E7CFD9FF120075DC4FDDCC
:101A4000F3CF23F1F4CF24F14FDDF3CF25F1F4CF21
:101A500026F14FDD0101226F280E24AF02D0D8906D
:101A600003D0235D000E245901E346DE01010E512F
:101A7000E66EE66A25C1E6FF26C1E6FF23C1E6FF62
:101A800024C1E6FF22C114F0156A14BE156814C003
:101A9000E6FF15C0E6FFDC0E166E2D0E176E186AF7
:101AA00016C0E6FFE66E18C0E6FFEA0EE66E000E10
:101AB000E66E20EC18F0196E0D0EE15E19505EEC2A
:101AC0001BF00009FCE1400EE66ED5EC19F0E55282
:101AD0005EEC1BF00009FCE16E0EE66E0AEC1CF0F9
:101AE000E5525EEC1BF00009FCE1EA0EE66E000E2A
:101AF000E66E96EC1AF0E552E55212005EEC1BF031
:101B00000009FCE1E66AD5EC19F0E5525EEC1BF049
:101B10000009FCE16E0EE66E0AEC1CF0E5525EEC8C
:101B20001BF00009FCE1CD0EE66E2D0EE66E23ECF7
:101B30001AF0E552E5525EEC1BF00009FCE1400EA4
:101B4000E66ED5EC19F0E5525EEC1BF00009FCE105
:101B50006E0EE66E0AEC1CF0E5525EEC1BF000091E
:101B6000FCE1BC0EE66E2D0EE66E23EC1AF0E5529B
:101B7000E5525EEC1BF00009FCE1100EE66ED5ECC0
:101B800019F0E5525EEC1BF00009FCE16E0EE66E0A
:101B90000AEC1CF0E5525EEC1BF00009FCE1AE0E15
:101BA000E66E2D0EE66E23EC1AF0E552E5521200B9
:101BB000D08EF28EF28C1200956A836A280EE66E41
:101BC000B9EC17F0E5525EEC1BF00009FCE1E66AA7
:101BD000D5EC19F0E552060EE66E70EC1AF0E552FF
:101BE0005EEC1BF00009FCE10F0EE66E70EC1AF0E3
:101BF000E5525EEC1BF00009FCE11200D5DD1EDFB2
:101C0000010E01011E6F1F6B1200DACFE4FFE2CF5D
:101C1000DAFFE9CFE4FFEACFE4FFF6CFE4FFF7CF46
:101C2000E4FFF5CFE4FFF3CFE4FFF4CFE4FFFACF16
:101C3000E4FF00EE00F0140EE80403E3EECFE4FF4F
:101C4000FBD700EE14F0070EE80403E3EECFE4FF49
:101C5000FBD7E652F29EF2A203D072DCF288F29237
:101C6000F0A205D0F098C5EC08F0F088F092F28E62
:101C7000E55200EE1AF0070EE80403E3E5CFEDFFAE
:101C8000FBD700EE13F0140EE80403E3E5CFEDFFFD
:101C9000FBD7E5CFFAFFE5CFF4FFE5CFF3FFE5CFC4
:101CA000F5FFE5CFF7FFE5CFF6FFE5CFEAFFE5CF9C
:101CB000E9FFE5CFDAFF1100D8CFE4FFE0CFE4FF82
:101CC000E46EDACFE4FFE2CFDAFFE9CFE4FFEACF58
:101CD000E4FFF6CFE4FFF7CFE4FFF5CFE4FFF3CF67
:101CE000E4FFF4CFE4FFFACFE4FF00EE00F0140EBF
:101CF000E80403E3EECFE4FFFBD700EE14F0070E99
:101D0000E80403E3EECFE4FFFBD7E652F29CF0A039
:101D100004D0F096B9DDF090F086F2A408D0F29AE3
:101D200056DDF250040B02E0000E01D0010EF28CE1
:101D3000E55200EE1AF0070EE80403E3E5CFEDFFED
:101D4000FBD700EE13F0140EE80403E3E5CFEDFF3C
:101D5000FBD7E5CFFAFFE5CFF4FFE5CFF3FFE5CF03
:101D6000F5FFE5CFF7FFE5CFF6FFE5CFEAFFE5CFDB
:101D7000E9FFE5CFDAFFE550E5CFE0FFE5CFD8FF9B
:101D80001000D9EC08F0DDEC08F092EC09F098ECCA
:101D90000AF09DEC0AF00CDF0FDFB3DDAFDE0101CE
:101DA0000C0E20190AE1215108E1010E1E1901E172
:101DB0001F5103E025EC00F021DFD1EC08F0EFD754
:101DC0001CEC14F0FB0EDBCFF3FFDB06F350000935
:101DD0000AE06AEC14F0FA0ED5EC14F0F3E1151CED
:101DE000F1E1010E01D0000E4BEF14F01CEC14F0E9
:101DF0003B0EE12402E3E168E652E16E010EDB6A8C
:101E0000020EDB6AF90EDBCFF6FFFA0EDBCFF7FF2F
:101E1000FB0EDBCFF8FF0800F550DF6EDF5002E16C
:101E20006FEF13F0250EDF5C02E062EF13F0030E9C
:101E3000DB6A040EDB6A050EDB6A060EDB6A070E40
:101E4000DB6A84EC13F02D0EDF5C0CE02B0EDF5C04
:101E500009E0200EDF5C06E0230EDF5C03E0300EBD
:101E6000DF5C1AE1DF50300A14E0130A0FE0030AC6
:101E70000AE00B0A05E0060AE4E1030EDB80E1D785
:101E8000030EDB82DED7030EDB84DBD7030EDB869B
:101E9000D8D7030EDB88D5D72A0EDF5C1BE180EC98
:101EA00013F0CEEC13F010E0030EDB800868096835
:101EB000130EDBCF0DF0140EDBCF0EF0F5EC15F0AA
:101EC000040E06C0DBFF03D0130EB7EC13F084EC56
:101ED00013F00BD0090EDB6A25EC14F003E099EC4B
:101EE00014F0FAD7090EB7EC13F0030EDBB0DB9851
:101EF0002E0EDF5C1BE184EC13F02A0EDF5C0BE19D
:101F000080EC13F0CEEC13F003E1130E09EC14F0A7
:101F100084EC13F00BD0090EDB6A25EC14F003E01F
:101F200099EC14F0FAD7090E09EC14F0680EDF5C96
:101F300007E184EC13F0680EDF5C1DE1030E18D09E
:101F4000740EDF5C17E07A0EDF5C14E0480EDF5C95
:101F500006E0540EDF5C03E05A0EDF5C02E1020E85
:101F600007D06C0EDF5C03E06A0EDF5C04E1010E5B
:101F70005CEC14F0C9DBDF506E0A01E17FD31E0A6E
:101F800001E192D1200A01E18FD13F0A01E149D15B
:101F90001A0A01E146D10D0A01E143D1200A01E10B
:101FA00040D13A0A01E13DD1200A01E13AD1260AA5
:101FB00001E135D10D0A01E132D11A0A01E1D9D08E
:101FC000200A4AE0300A1FE0460A0EE0250A01E036
:101FD00083D3D950F90FE96EFF0EDA20EA6E010EB5
:101FE000EE5E000EEE5AEE5A6AEC14F0250EE66E26
:101FF00095DB03E1151C01E169D366EC14F001E205
:102000006BD3DB2A69D3080EDB6A040EDB500108B0
:1020100006E2040EDB042EEC14F0DB508BDB080E22
:10202000DB5009E0030EDB50010B05E172DB01E040
:102030004DD3080EDB6A64DBEFCFDFFFDEEC14F07C
:1020400003E1151C01E142D366EC14F001E3DB2A45
:1020500060DB01E141D33AD3070EDB5002080FE108
:10206000AAEC14F0030E71EC14F00E0EEECFDBFFB1
:102070000F0EEECFDBFF100EEECFDBFF20D0F70E02
:10208000DBCF17F0F80EDBCF18F0020E175E000E54
:10209000185AF70E17C0DBFFF80E18C0DBFF17C089
:1020A000E9FF18C0EAFF61EC14F0166A0E0E14C0C6
:1020B000DBFF0F0E15C0DBFF100E16C0DBFF0E0E90
:1020C000DBCFE6FF0F0EDBCFE6FF100EDBCFE6FF28
:1020D00083EC19F0E552E552E552130E07C0DBFF21
:1020E000140E08C0DBFF060EDB5005E0130EA5EC56
:1020F00014F001E26ADBC9EC14F002E2130E37DBE4
:102100008CEC14F006E0040EA5EC14F002E2050ECF
:102110002EDB030EDBB005D0FCDA01E0D7D2080ECF
:10212000DB6A090EDB6A0E0EDBCFF6FF0F0EDBCF8C
:10213000F7FF100EDBCFF8FF0800F550DF6EDF5021
:1021400014E0CFEC14F011E2DEEC14F003E1151C06
:1021500001E1BCD2BBDB01E3DB2A090EDB2AD9504B
:102160000E0FE96E000ECBDBE7D7D3DA01E1B4D274
:10217000ADD2C6DA110EEECFDBFF120EEDCFDBFFD4
:10218000110EDBCFE6FF120EDBCFE6FF75EC19F088
:10219000E552E552130EF3CFDBFF140EF4CFDBFF55
:1021A000060EDB5004E0130ED0DB01E20EDBC9ECBF
:1021B00014F002E2130EDBDAAFDB05E0040EC5DB40
:1021C00002E2050ED4DA030EDBB005D0A2DA01E09C
:1021D0007DD2080EDB6A090EDB6A110EDBCFE9FF48
:1021E000120EDBCFEAFFEFCFDFFFDF5014E0D7DBCB
:1021F00012E2E4DB03E1151C01E168D267DB01E3D5
:10220000DB2A090EDB2A110EDB2ADBCFE9FF120ED7
:10221000E8E3DB2AE6D77DDA01E15ED257D2030E8E
:10222000DB8E070EDB0410E195DB040E5ADB0A0E91
:10223000EECFDBFF0B0EEECFDBFF0C0EEECFDBFFA6
:102240000D0EEECFDBFF6CD0070EDB5003082CE148
:10225000030EDBAE0DD0B2DA020E76DAEFCF14F059
:10226000156A166A176A14AE39D01568166835D023
:10227000F70EDBCF15F0F80EDBCF16F0020E155E71
:10228000000E165AF70E15C0DBFFF80E16C0DBFF66
:1022900015C0E9FF16C0EAFFEFCF14F00A0E14C014
:1022A000DBFF0B0EDB6A38D0070EDB50020809E1BA
:1022B000030EDBAE04D059DB16AE10D00ED055DBCA
:1022C0000DD0030EDBAE12D079DA020E3DDAF9DA68
:1022D000166A176A15AE02D016681768E2DA0C0E95
:1022E00016C0DBFF0D0E17C0DBFF1AD0F70EDBCFD9
:1022F00016F0F80EDBCF17F0020E165E000E175A1E
:10230000F70E16C0DBFFF80E17C0DBFF16C0E9FFA3
:1023100017C0EAFFD6DAC5DA0C0EDB6A0D0EDB6AEF
:10232000060EDB5005E1010EF36E050EF3CFDBFF69
:10233000150EDB6A160EDB6AD950370F146E000ECD
:10234000DA20156E390E14C0DBFF3A0E15C0DBFF24
:10235000380EDB6A080EDB6A0A0EAEDADF50780A46
:1023600012E0200A10E0280A0CE0200A0AE03F0AE6
:1023700006E00D0A02E0200A08E1020E05D0080E70
:1023800003D0080EDF26100E97DA030EDBBE02D054
:10239000DB92DB94DB50800B24E08ADAD890030ECA
:1023A000EB50000A08E6000EEE5C000EEE58000E40
:1023B000EE58000EEE5815E213DA0B680C680D6843
:1023C0000E6807EC19F00A0E02C0DBFF0B0E03C00B
:1023D000DBFF0C0E04C0DBFF0D0E05C0DBFF2D0E76
:1023E00008D0030EDBA202D02B0E03D0DBA408D052
:1023F000200EF36E170EF3CFDBFF150EDB2A02D093
:10240000170EDB6A050EDB5003E1B7D901E189D075
:10241000040E146E390E156E000E166E070EDBCF0D
:1024200017F0186A196A1A6A17C00BF018C00CF076
:1024300019C00DF01AC00EF0D3D9BBEC1AF014502D
:102440000224F36E15500320F46E16500420F86E2B
:10245000F4CFF7FFF3CFF6FF0800090EF5CFDBFF4F
:10246000580EDF5C0FE1610EF36E090E7BD90AE3B3
:10247000200E146E090EDBCFE7FF1450E75E090E45
:10248000E7CFDBFF070EDBCF14F0156A166A176A79
:102490000FDA14C00BF015C00CF016C00DF017C009
:1024A0000EF0EECF06F0EECF07F0EECF08F0EFCF54
:1024B00009F0BBEC1AF009C0EDFF08C0EDFF07C042
:1024C000EDFF06C0EFFF390EDBCFE9FFDB063A0E6A
:1024D000DBCFEAFF01E2DB06090EDBCFEFFF150ED3
:1024E000DB2A4BD995E1030EDBA61DD06F0EDF5C16
:1024F00006E1C1D918E3150EDB285BDA14D0780E9B
:10250000DF5C09E0580EDF5C06E0620EDF5C03E092
:10251000420EDF5C08E1020EF36E160EF3CFDBFF16
:1025200002D0150EDB6A030EDB50100B0EE0040E1A
:10253000DBCF14F0050EDB50D880145406E2060EF3
:10254000DB5003E1040EDB5034DA95D90AE2050EC4
:10255000DBCFE7FF150EDB50E75E050EE7CFDBFFB5
:1025600002D0050EDB6A040EDBCF14F0160E45D93F
:10257000D880145414E2160EDBCFE6FF150EDBCF25
:10258000E6FF040EDBCFE6FF050EDB50E552E75C0D
:10259000E552D880E754E552D880E7545FD9030E5E
:1025A000DB50010B0BE1080EDB5008E0B2D801E074
:1025B0008DD0080EDB50BED8080EDB6A170EDB503C
:1025C00007E088D9170EF1D903E1151C01E17ED08F
:1025D000160EDB5016E07ED9300EE66E9FD802E173
:1025E000151C74E077D9DFCFE6FFC5EC18F0E55293
:1025F000E552E552F4CF15F00001F31C02E1151C81
:1026000065E0050EDBCF14F0160EDB50D8801454B5
:1026100009E2050EDBCFE7FF160EDB50E75E050E85
:10262000E7CFDBFF300EE66E050ECBD94FE1390E5A
:10263000DB2ADBCFE9FF3A0E01E3DB2ADBCFEAFF3F
:10264000090EEFCFDBFFDB500EE044D9090EADD908
:1026500002E1151C3BE0390EDB2ADBCFE9FF3A0E25
:10266000EDE3DB2AEBD755D831E1160EDBCFE6FFE1
:10267000080EC3D8E552E7245DD82ED0070EDB50F4
:10268000030A1CE0010A14E0030A07E07BD9DBCF50
:10269000EEFF020EDBCFEDFF1FD0F5D8196A17AEA3
:1026A00002D0186819682CD8BCD819C0EEFF14D015
:1026B000EAD817BE186824D8B4D80ED063D9DBCFB7
:1026C000EFFF0AD07BD905E1151C03E1F368F4683C
:1026D00010D0FCD801E3DB2A79D90BEF0FF0010E03
:1026E000DBCF14F0020EDBCF15F014C0F3FF15C0E2
:1026F000F4FF3B0EE15C02E2E16AE552E16ECBD011
:1027000029D9020E71EF14F061D90800F550DF6E7F
:102710001200200EE66E080EE1EF14F0C5EC18F082
:10272000E552E552E552F3CF14F0F4CF15F0000175
:10273000F31C1200146E156AD950010F4DD91450B4
:10274000EE261550ED221200185E000E195AF70EF3
:1027500018C0DBFFF80E19C0DBFF18C0E9FF19C075
:10276000EAFF1200DBCFF4FFF350F45C1200DB5001
:10277000E76E040EE7CFDBFF12000A0EDBCF14F08A
:102780000B0EDBCF15F00C0EDBCF16F00D0EDBCFF2
:1027900017F014501510161017101200130EEECF6C
:1027A000DBFF140EEDCFDBFF130EDBCF14F0140EA6
:1027B000DBCF15F00001800E15141200F70EDBCFF1
:1027C00018F0F80EDBCF19F01200050EDB50E66EA4
:1027D000D950130F01D9E552E750EE6EED6A1200A1
:1027E0000A0EDBCF06F00B0EDBCF07F00C0EDBCFB3
:1027F00008F00D0EDBCF09F01200DBCFE6FF150E5F
:10280000DBCFE6FF050EDB50E552E724E552E72477
:102810001200DB50CED8010EF36E060EF3CFDBFFB5
:102820001200EE50EFCFEAFFE96E16C0EEFF17C0C0
:10283000EEFF18C0EEFF1200D9CFE6FFDACFE6FFB9
:10284000E1CFD9FFE2CFDAFF1200DFCFE6FFE66A81
:10285000D5EC1BF0E552E552F3501200E76E080E7E
:10286000E7CFDBFF1200EECF14F0EECF15F0EFCF85
:1028700016F0176A1200050EDBCF14F0150EDB50B0
:10288000D88014541200010EDBCF16F0020EDBCFFD
:1028900017F0186A1200E552E5CFDAFFE7CFD9FF4B
:1028A00012000A0E14C0DBFF0B0E15C0DBFF120076
:1028B000D9500A0FECEF14F0F36E070EF3CFDBFFE5
:1028C0001200EECF14F0EFCF15F01200010EDB2A4C
:1028D000020E1200FC0EDBCFE6FFFD0EDBCFE6FFA3
:1028E0001200145E000E155AF70E14C0DBFFF80E2E
:1028F00015C0DBFF14C0E9FF15C0EAFF1200DA20A3
:10290000EA6EEF2AEECFF6FF000EEF22EECFF7FFD2
:10291000EF22EECFF8FF1200040EDBCFE6FF130E1E
:10292000DB50E552E75C9ADFDB5004DF060EDB503C
:102930001200090EDB500A0DF350DF24D00FE76EB2
:10294000090EE7CFDBFF84EF13F0DB50F36E050ECB
:10295000B2EF13F0F70EDBCF14F0F80EDBCF15F06B
:102960001200DFCFE6FF8EEF13F028DF030EECDE60
:1029700033EF14F0E0EC0EF0E552E552E552E5528B
:1029800000091200BDDEEE50EFCFEAFFE96E010E46
:102990001200130EDB50F36E040EB2EF13F0040EB0
:1029A000DB50F36E090EB2EF13F0DBCFE6FF8EEFD4
:1029B00013F0E76E050EE7CFDBFF12008BDFB1EF00
:1029C00014F0DBCFE6FF86DFBAEF14F0D950F90F31
:1029D000E96EFF0E7FEF14F0E96E000EDA20EA6E6A
:0229E0001200E3
:0E29E2000F7E016AA9EC16F0C1EC16F001B6EA
:1029F00051EF16F001A20AD001AA03D001BE51EF97
:102A000016F001A45DEF16F05AEF16F001AA05D0FA
:102A100001AC5DEF16F05AEF16F001A00AD001A844
:102A200008D001BE04D001A402D066EF16F06AEF10
:102A300016F0126A056A0F500A5C116E10E307C0A7
:102A400013F008C002F009C003F00AC010F00CC077
:102A500007F00DC008F00EC009F0013A09D00CC013
:102A600013F00DC002F00EC003F00FC010F0116C97
:102A7000019E01BC018E10C004F001B099EF16F068
:102A80001A0E116099EF16F0046A0A6A01A408D0C0
:102A9000076C081E091E0A1EE86A082209220A227B
:102AA00001AC08D0136C021E031E041EE86A022249
:102AB00003220422066A115207E00A34093208325E
:102AC00007320632112EF9D707501326085002227A
:102AD000095003220A50042206C012F0019E04AEDF
:102AE0000BD0126C131E021E031E041EE86A132272
:102AF000022203220422018E04A006D0D8800332D1
:102B0000023213321232102A10C004F06DEF16F0A8
:102B1000016AA9EC16F0C1EC16F001B651EF16F0FF
:102B200001A205D001B851EF16F058EF16F001AA36
:102B300005D001B051EF16F058EF16F001B002D0F9
:102B400001A802D064EF16F0056A0F500A24046E43
:102B5000E86A05227E0E045EE86A055A126A136A64
:102B6000026A036A0E500902F4CF03F0F3CF02F0B9
:102B70000D500902F3501326F4500222000E0322D6
:102B80000E500802F3501326F4500222000E0322C6
:102B90000C500902F3501226F4501322000E0222A8
:102BA00003220D500802F3501226F4501322000E97
:102BB000022203220E500702F3501226F450132271
:102BC000000E022203220C500802F4501226000EBE
:102BD0001322022203220D500702F4501226000E87
:102BE0001322022203226DEF16F009C013F008C071
:102BF00012F008500D02F4CF07F0F3CF06F00950A1
:102C00000E02F4CF09F0F3CF08F00D02F3500726BF
:102C1000F4500822E86A092212500E02F3500726E7
:102C2000F4500822E86A09220EAE1BEF16F012508B
:102C3000085E1350095A13AE000C0D50085E0E507A
:102C4000095A000C016AA9EC16F001B62CEF16F037
:102C500001A20ED001B405D07F0E096EFF0E086EE2
:102C60001FD0800E096E086A1BD0096A086A18D046
:102C700001B0FBD78F0E0A60EDD77E0E0A64F5D740
:102C80008E0E0A5C05E0D890093208320A2AF8D77D
:102C900001A406D0086C091EE86A092209AEE5D72E
:102CA00012007F0E0A6EFF0E096E086E076E12008C
:102CB0007F0E01BEFF0E0A6E02D07F0E0A6E800EDE
:102CC000096E086A076AF3D701AE04D0800E0A6E57
:102CD000096AF7D70A6A096AF4D703500210131079
:102CE0001210F8E005BEF0D703BE0CD0045005105A
:102CF000EBE0D89012361336023603360406D8A01D
:102D00000506F2D70550D4E10428D2E012AE11D066
:102D10007F0E121402E113A00CD0132AE86A0222DB
:102D2000032207E3D880033202321332042A042834
:102D3000BFE00450C9E013C007F002C008F003343C
:102D4000096E04300A6E09320A9E01BE0A8E57EFE0
:102D500016F009360A3602E30184017E06E101809D
:102D60000A6A096A086A076A12000A2803E0D8801A
:102D700009321200D890093202E101821200018664
:102D800012000E360F3602E3018C017E06E1018847
:102D90000F6A0E6A0D6A0C6A12000F2803E0D880D1
:0E2DA0000E321200D8900E32EAE1018A1200C3
:022DAE00422EB3
:102DB000292056696577204D6F646500412E2920D2
:102DC00043617074757265204D6F64650053656C66
:102DD000656374204F7074696F6E3A0054656D704E
:102DE0003A20256325642E2530336425634300543F
:102DF00065616D2052656420536F6C6F00476C7580
:102E0000636F7365204D6F6E69746F720050494334
:102E100031382050756C73652026004865617274E6
:102E2000626561743A256400486561727462656127
:102E3000743A256442504D00440043004200410072
:102E400023003900360033003000380035003200EE
:102E50002A003700340031002020202020202020AC
:102E600020202020202020202020202000536875B2
:102E700074646F776E20696E3A2020256473005069
:102E80006F77657220646973636F6E6E65637465D6
:102E9000642E2E2E004E6F20726561642066726F64
:102EA0006D20255800427974653A255800536563B2
:102EB000746F723A2558004E6F20777269746520DE
:102EC000746F2025580043686970206E6F742070FD
:102ED000726573656E74004461746120676F6F641E
:102EE0002000446174612021676F6F6400425000CC
:102EF000536563746F722025582072656164792070
:102F00002000536563746F7220255820216572611B
:102F100073656400450045786974696E67205344A1
:102F2000502E2E2E0033395346303430202170720B
:102F30006573656E740033395346303430206465F0
:102F4000746563746564210044657669636520492E
:102F5000443A2558004D616B65722049443A255822
:102F60000020202020202020202020202020202081
:022F700020003F
:0E2F7200D9CFE6FFE1CFD9FF0F0E83169516DB
:102F80009594959295908C948C928C9092EC0AF0FA
:102F9000300EE66E70EC1AF0E552050EE66E93EC1C
:102FA0001BF0E552300EE66E70EC1AF0E552010EA1
:102FB000E66E93EC1BF0E552320EE66E70EC1AF002
:102FC000E5525EEC1BF00009FCE15EEC1BF0000931
:102FD000FCE1FE0EDBCFE6FF70EC1AF0E5525EEC92
:102FE0001BF00009FCE1080EE66E70EC1AF0E552E9
:102FF0005EEC1BF00009FCE10F0EE66E70EC1AF0BF
:10300000E5525EEC1BF00009FCE1010EE66E70EC8F
:103010001AF0E5525EEC1BF00009FCE1040EE66ECE
:1030200070EC1AF0E5525EEC1BF00009FCE1800E3A
:10303000E66ED5EC19F0E552E552E7CFD9FF120064
:10304000D9CFE6FFDACFE6FFE1CFD9FFE2CFDAFF53
:10305000E652E652E652E652D950F90F146EFF0ED0
:10306000DA20156E020E14C0DBFF030E15C0DBFF65
:10307000020EDBCFE6FF030EDBCFE6FFF90EDBCF60
:10308000E6FFFA0EDBCFE6FFFB0EDBCFE6FFD95003
:10309000FC0FE66EFF0EDA20E66EF6EC0EF0146E14
:1030A000070EE15C02E2E16AE552E16E1450F3CFF3
:1030B000DEFFF4CFDDFFFC0EDBCFE9FFFD0EDBCF43
:1030C000EAFFEF6ADECF14F0DDCF15F014C0F3FF96
:1030D00015C0F4FF040EE15C02E2E16AE552E16E24
:0C30E000E552E5CFDAFFE7CFD9FF120080
:0430EC001E0EF66E50
:1030F000000EF76E000EF86E01010900F5502E6FFC
:103100000900F5502F6F03E12E6701D03DD0090073
:10311000F550296F0900F5502A6F0900F5502B6F03
:1031200009000900F550E96E0900F550EA6E090042
:1031300009000900F5502C6F0900F5502D6F0900AA
:103140000900F6CF30F1F7CF31F1F8CF32F129C1D4
:10315000F6FF2AC1F7FF2BC1F8FF01012C5302E152
:103160002D5307E00900F550EE6E2C07F8E22D070D
:10317000F9D730C1F6FF31C1F7FF32C1F8FF0101C5
:0A3180002E07000E2F5BBFD71200D0
:06318A00D9CFE6FFDACF09
:10319000E6FFE1CFD9FFE2CFDAFFFB0EDBCF14F081
:1031A000FC0EDBCF15F00001800E15141AE1FB0EAA
:1031B000DBCFE9FFFC0EDBCFEAFFEECFF3FFEDCF75
:1031C000F4FFEE2A000EEF22F3CFE9FFF4CFEAFF7F
:1031D000FD0EDBCFEFFFEF50156AF36E15C0F4FF65
:1031E00010D0FB0EDB50FE0806E1FD0EDBCFE6FF44
:1031F00048EC1CF005D0FD0EDBCFE6FF03EC00F041
:0E320000E552E552E5CFDAFFE7CFD9FF120025
:02320E00065068
:103210000B02F3CF02F0F4CF03F00C02F3500326BD
:10322000000EF420046E06500D02F3500426000E2A
:10323000F420056E06500E02F350052607500B02CF
:10324000F3500326F4500422000E052207500C020E
:10325000F3500426F450052207500D02F3500526C2
:1032600008500B02F3500426F450052208500C02BB
:0E327000F350052609500B02F35005261200FC
:02327E00D9CFA6
:10328000E6FFE1CFD9FF030EE126F8CF01F0F6CF3C
:1032900002F0FE0EDB80DB82DB84DB86DB88DB8AF0
:1032A000FD0EDB84DB86DB88DB8ADB8CDB8EFE0EAF
:1032B000DBCFE6FFC00EBD10E552E714BD6EFD0E7C
:1032C000DBCFE6FF0F0EBD10E552E714BD6E01C067
:1032D000F8FF02C0F6FF030EE15C02E2E16AE5528C
:0A32E000E16EE552E7CFD9FF1200BE
:0632EA00FE0EE3CFE9FF38
:1032F000FF0EE3CFEAFFF36AF46AEE5203E0F34A0B
:10330000F42AFBD71200FF0EE3CFF8FFE552FF0EC1
:10331000E3CFF7FFE552FF0EE3CFF6FFE552E66A93
:10332000E66AE66A0900F55209E0FD0EE32A05E1C6
:10333000FE0EE32A02E1FF0EE32AF4D7FD0EE3CFEF
:1033400007F0FE0EE3CF08F0FF0EE3CF09F0120006
:10335000D9CFE6FFE1CFD9FF020EE126FD0EDBCF8C
:1033600014F0FE0EDBCF15F0060ED890143615368D
:10337000E804FBE114C0DEFF15C0DDFF010EDB50E9
:10338000BE6EDF50E840E8403F0B300B146ECF0EAE
:10339000BD141410BD6E020EE15C02E2E16AE5525A
:0A33A000E16EE552E7CFD9FF1200FD
:0633AA00D9CFE6FFE1CFE0
:1033B000D9FF0F0E95168316FE0EDB508009F00B19
:1033C00083128C948C927CEC0AF08C807CEC0AF05A
:1033D0008C900F0E8316FE0EDB38F00BF00B831271
:1033E0007CEC0AF08C807CEC0AF08C90F00E95124C
:0833F000E552E7CFD9FF1200FE
:0833F800D9CFE6FFE1CFD9FFB8
:103400000F0E95168316FE0EDB504009F00B83124B
:103410008C948C927CEC0AF08C807CEC0AF08C9082
:103420000F0E8316FE0EDB38F00BF00B83127CECD4
:103430000AF08C807CEC0AF08C90F00E9512E5522C
:06344000E7CFD9FF1200E6
:0A344600D9CFE6FFE1CFD9FFFD0E5C
:10345000DBCFF6FFFE0EDBCFF7FF0800F55016E0DE
:103460005EEC1BF00009FCE1FD0EDBCFF6FFFE0E6B
:10347000DBCFF7FF0800F550E66E4AEC1AF0E55294
:10348000FD0EDB2AFE0EE3E3DB2AE1D7E552E7CFB0
:04349000D9FF12004E
:0C349400D9CFE6FFE1CFD9FF0F0E95164F
:1034A0008316FE0EDB50F00B83128C828C947CEC26
:1034B0000AF08C807CEC0AF08C900F0E8316FE0EC6
:1034C000DB38F00BF00B83127CEC0AF08C807CEC88
:1034D0000AF08C90F00E9512E552E7CFD9FF12005A
:1034E000D9CFE6FFE1CFD9FF0F0E95168316FE0E5A
:1034F000DB50F00B83128C948C927CEC0AF08C8065
:103500007CEC0AF08C900F0E8316FE0EDB38F00B6D
:10351000F00B83127CEC0AF08C807CEC0AF08C902F
:0C352000F00E9512E552E7CFD9FF120023
:04352C00D9CFE6FF0E
:10353000E1CFD9FFFD0EDBCFE9FFFE0EDBCFEAFFC7
:10354000EF5015E05EEC1BF00009FCE1FD0EDBCF57
:10355000E9FFFE0EDBCFEAFFEF50E66E4AEC1AF011
:10356000E552FD0EDB2AFE0EE5E3DB2AE3D7E5524A
:06357000E7CFD9FF1200B5
:0A357600056A046A036A026A200E67
:10358000E76ED89006360736083609360236033617
:10359000043605360B50025C0C5003580D5004588D
:1035A0000E50055809E30B50025E0C50035A0D50A3
:0E35B000045A0E50055A062AE72EE4D71200E0
:0235BE00D9CF63
:1035C000E6FFE1CFD9FFE6528C848C827CEC0AF0D6
:1035D0008C807CEC0AF0F00E8314DF6E8C907CEC17
:1035E0000AF08C807CEC0AF083380F0B0F0BDF1293
:1035F0008C908C928C94DF50E552E552E7CFD9FF46
:023600001200B6
:0E360200D9CFE6FFE1CFD9FFE6528C848C923F
:103610007CEC0AF08C807CEC0AF0F00E8314DF6EF8
:103620008C907CEC0AF08C807CEC0AF083380F0BD9
:103630000F0BDF128C908C947F0EDF14E552E55255
:06364000E7CFD9FF1200E4
:0A364600D9CFE6FFE1CFD9FFC26A39
:10365000FE0EDB50C16EFD0EDB50380B146EFE0EFD
:10366000DB50040DF350C00B1410C26EFD0EDBAE28
:1036700003D09E9C9D8CF28CC280E552E7CFD9FF8F
:02368000120036
:0E368200D9CFE6FFE1CFD9FF020EE126D650E8
:10369000DF6E010ED7CFDBFFDECF14F0DDCF15F0EC
:1036A00014C0F3FF15C0F4FF020EE15C02E2E16A10
:0C36B000E552E16EE552E7CFD9FF1200B1
:0436BC008C848C92DC
:1036C0007CEC0AF08C807CEC0AF083AE09D08C9004
:1036D0007CEC0AF08C807CEC0AF08C908C94010CD1
:1036E0008C907CEC0AF08C807CEC0AF08C908C94B2
:0236F000000CCC
:0E36F200D9CFE6FFE1CFD9FF020EE126FD0E93
:10370000DBCFDEFFDBCFDDFF010EDB50D76EDF50FE
:10371000D66E020EE15C02E2E16AE552E16EE5522C
:06372000E7CFD9FF120003
:0A372600FF0EE3501C6EEF0E01D001
:10373000F30EE76EE72E9AEF1BF00C0E1B6EE76A96
:10374000E72EA0EF1BF01B2E9FEF1BF01C2E98EF17
:043750001BF0120058
:0C375400D9CFE6FFE1CFD9FFFE0EDB501D
:103760007F0BD56ED76AD66AF294FE0EDBAE02D01E
:10377000F28A01D0F29AD58EE552E7CFD9FF120036
:10378000D9CFE6FFE1CFD9FFFE0EDB50FB0BCA6EAF
:10379000CC6A9E92FE0EDBAE02D09D8201D09D923D
:0A37A000CA84E552E7CFD9FF1200FA
:0637AA00F36AF46AFF0E51
:1037B000E124E96EFF0EE220EA6EED6607D02F0EDF
:0E37C000EF6404D03A0EEF6001D0F32A12003D
:0237CE00D9CF51
:1037D000E6FFE1CFD9FF0C0EBD129494CA94FE0E01
:1037E000DB50CB6ECA84E552E7CFD9FF1200949428
:0237F0001200C5
:0E37F200D9CFE6FFE1CFD9FFFE0EDB50380B3A
:10380000146EC30EC2141410C26EC284E552E7CF08
:04381000D9FF1200CA
:0C381400FF0EE3501C6E480E01D04C0E5D
:10382000E76EE72EFED7E76AE72EFED71C2EF7D706
:043830000000120082
:0C383400D9CFE6FFE1CFD9FFC70EC214C8
:10384000146EFE0EDB50380B1410C26EE552E7CF3B
:04385000D9FF12008A
:0C385400000EF36E00EE00F0060E01D82E
:103860001200EA6002D0EE6AFCD7F350E960120061
:04387000EE6AFCD729
:0C38740015EE00F025EE00F0F86A019C53
:1038800076EC18F098EC1CF0C1EC0EF0FBD71200AF
:10389000FF0EE350ACBA04D0AF6AAB8EAC8A949CF6
:0C38A000ACA2FED7AD6EF36EF46A12000D
:0438AC00D9CFE6FF8B
:1038B000E1CFD9FFE652CC50DF6EDF50E552E55242
:0638C000E7CFD9FF120062
:0A38C600FF0EE350E84E1200000070
:0C38D00000D000D000D0E82EFAD7120083
:0438DC00D9CFE6FF5B
:1038E000E1CFD9FFFE0EDB50CC6EE552E7CFD9FF1A
:0238F0001200C4
:0E38F200C450176E166AC3501610F36E17C03E
:04390000F4FF1200BE
:0C390400303132333435363738396162E7
:05391000636465660020
:06391600CA949D9212000C
:04391C00D59EF29AA8
:02392000120093
:06392200C2909D9C120002
:04392800BD6A120062
:04392C00C28412003F
:02393000120083
:0E393200000000000000000000000000000087
:10394000DF00000000000000000000000000000098
:0B39500000000000300000000000003C
:020000040030CA
:010003000EEE
:010006008178
:00000001FF
