:020000040000FA
:0600000097EF02F0120070
:020006000000F8
:08000800D9CFE6FFE1CFD9FFDB
:100010000F0E831695169594959295908C948C92CC
:100020008C9081EC00F0300EE66EB6EC01F0E552FB
:10003000050EE66E60EC02F0E552300EE66EB6ECB0
:1000400001F0E552010EE66E60EC02F0E552320E70
:10005000E66EB6EC01F0E55245EC02F00009FCE179
:1000600045EC02F00009FCE1FE0EDBCFE6FFB6EC4A
:1000700001F0E55245EC02F00009FCE1080EE66EE5
:10008000B6EC01F0E55245EC02F00009FCE10F0E80
:10009000E66EB6EC01F0E55245EC02F00009FCE139
:1000A000010EE66EB6EC01F0E55245EC02F00009F7
:1000B000FCE1040EE66EB6EC01F0E55245EC02F010
:1000C0000009FCE1800EE66E1BEC01F0E552E55202
:0600D000E7CFD9FF12008A
:0A00D6000000000000000000000020
:1000E0000000000000000000000000000000000010
:1000F000000000D01200050EE66E77EC02F0E5522B
:1001000012000F0EE66E77EC02F0E5521200836AE1
:10011000956A280EE66E04EC00F0E55245EC02F01C
:100120000009FCE1E66A1BEC01F0E552060EE66E02
:10013000B6EC01F0E55245EC02F00009FCE10F0ECF
:10014000E66EB6EC01F0E55245EC02F00009FCE188
:100150001200DDDF45EC02F00009FCE145EC02F0A5
:100160000009FCE1E66A1BEC01F0E55245EC02F007
:100170000009FCE16E0EE66E77EC02F0E55245EC0C
:1001800002F00009FCE14A0EE66E050EE66E69EC2F
:0801900001F0E552E552E2D74F
:08019800060EF66E000EF76E74
:1001A000000EF86E04010900F550066F0900F550C5
:1001B000076F03E1066701D03DD00900F550016FDC
:1001C0000900F550026F0900F550036F090009009E
:1001D000F550E96E0900F550EA6E090009000900C2
:1001E000F550046F0900F550056F09000900F6CFBE
:1001F00008F4F7CF09F4F8CF0AF401C4F6FF02C4FB
:10020000F7FF03C4F8FF0401045302E1055307E0BC
:100210000900F550EE6E0407F8E20507F9D708C4A7
:10022000F6FF09C4F7FF0AC4F8FF04010607000E31
:06023000075BBFD71200BE
:0A023600D9CFE6FFE1CFD9FF0F0E8C
:1002400095168316FE0EDB508009F00B83128C94FA
:100250008C926BEC00F08C806BEC00F08C900F0EAD
:100260008316FE0EDB38F00BF00B83126BEC00F004
:100270008C806BEC00F08C90F00E9512E552E7CF7D
:04028000D9FF120090
:0C028400D9CFE6FFE1CFD9FF0F0E951691
:100290008316FE0EDB504009F00B83128C948C9277
:1002A0006BEC00F08C806BEC00F08C900F0E8316E2
:1002B000FE0EDB38F00BF00B83126BEC00F08C8041
:1002C0006BEC00F08C90F00E9512E552E7CFD9FF61
:0202D00012001A
:0E02D200D9CFE6FFE1CFD9FFFD0EDBCFF6FF5F
:1002E000FE0EDBCFF7FF0800F55016E045EC02F0FC
:1002F0000009FCE1FD0EDBCFF6FFFE0EDBCFF7FFC2
:100300000800F550E66E90EC01F0E552FD0EDB2A98
:10031000FE0EE3E3DB2AE1D7E552E7CFD9FF120077
:10032000D9CFE6FFE1CFD9FF0F0E95168316FE0E4B
:10033000DB50F00B83128C828C946BEC00F08C8081
:100340006BEC00F08C900F0E8316FE0EDB38F00B7A
:10035000F00B83126BEC00F08C806BEC00F08C9057
:0C036000F00E9512E552E7CFD9FF120015
:04036C00D9CFE6FF00
:10037000E1CFD9FF0F0E95168316FE0EDB50F00B62
:1003800083128C948C926BEC00F08C806BEC00F000
:100390008C900F0E8316FE0EDB38F00BF00B8312E1
:1003A0006BEC00F08C806BEC00F08C90F00E9512F2
:0803B000E552E7CFD9FF12006E
:0803B800D9CFE6FFE1CFD9FF28
:1003C000FD0EDBCFE9FFFE0EDBCFEAFFEF5015E0BD
:1003D00045EC02F00009FCE1FD0EDBCFE9FFFE0E6B
:1003E000DBCFEAFFEF50E66E90EC01F0E552FD0E38
:1003F000DB2AFE0EE5E3DB2AE3D7E552E7CFD9FFA0
:020400001200E8
:0E040200D9CFE6FFE1CFD9FFE6528C848C8281
:100410006BEC00F08C806BEC00F0F00E8314DF6E60
:100420008C906BEC00F08C806BEC00F083380F0B41
:100430000F0BDF128C908C928C94DF50E552E552BA
:06044000E7CFD9FF120016
:0A044600D9CFE6FFE1CFD9FFE6525F
:100450008C848C926BEC00F08C806BEC00F0F00ED6
:100460008314DF6E8C906BEC00F08C806BEC00F0F2
:1004700083380F0B0F0BDF128C908C947F0EDF14E0
:0A048000E552E552E7CFD9FF120064
:06048A008C848C926BECE7
:1004900000F08C806BEC00F083AE09D08C906BEC9C
:1004A00000F08C806BEC00F08C908C94010C8C90A4
:1004B0006BEC00F08C806BEC00F08C908C94000C5A
:1004C000FF0EE350036EEF0E01D0F30EE76EE72E42
:1004D00067EF02F00C0E026EE76AE72E6DEF02F096
:0E04E000022E6CEF02F0032E65EF02F0120008
:0204EE00FF0EFF
:1004F000E350036E480E01D04C0EE76EE72EFED798
:0E050000E76AE72EFED7032EF7D700001200A1
:02050E00000EDD
:10051000F36E00EE00F0060E01D81200EA6002D081
:0E052000EE6AFCD7F350E9601200EE6AFCD7D9
:02052E0013EECA
:1005300081F023EE81F0F86A019CCCEC00F0AAEC8B
:0A05400002F0A9EC00F0FBD7120056
:06054A00526564536F6C62
:030550006F210018
:02055400120093
:020000040030CA
:010003000EEE
:010006008178
:00000001FF
